S020000048656C6C6F5F576F726C645F54464C4D5F454B5241364D342E73726563DE
S3150000000030250020A5D50300CDD30300A1D50300DC
S31500000010A1D50300A1D50300A1D50300A1D50300F6
S31500000020000000000000000000000000A1D5030051
S31500000030A1D5030000000000A1D50300A1D503004F
S31500000040DDCF030059CF030069D00300A5D003001C
S31500000050000000000000000000000000000000009A
S31500000060000000000000000000000000000000008A
S31500000070000000000000000000000000000000007A
S31500000080000000000000000000000000000000006A
S31500000090000000000000000000000000000000005A
S315000000A0000000000000000000000000000000004A
S315000000B0000000000000000000000000000000003A
S315000000C0000000000000000000000000000000002A
S315000000D0000000000000000000000000000000001A
S315000000E0000000000000000000000000000000000A
S315000000F000000000000000000000000000000000FA
S3150000010000000000000000000000000000000000E9
S3150000011000000000000000000000000000000000D9
S3150000012000000000000000000000000000000000C9
S3150000013000000000000000000000000000000000B9
S3150000014000000000000000000000000000000000A9
S315000001500000000000000000000000000000000099
S315000001600000000000000000000000000000000089
S315000001700000000000000000000000000000000079
S315000001800000000000000000000000000000000069
S315000001900000000000000000000000000000000059
S315000001A00000000000000000000000000000000049
S315000001B00000000000000000000000000000000039
S315000001C0FFFFFFFFFFFFFFFFFFFFFFFFFFFFFFFF39
S315000001D0FFFFFFFFFFFFFFFFFFFFFFFFFFFFFFFF29
S315000001E0FFFFFFFFFFFFFFFFFFFFFFFFFFFFFFFF19
S315000001F0FFFFFFFFFFFFFFFFFFFFFFFFFFFFFFFF09
S3150000020010B5054C237833B9044B13B1044800E00C
S3150000021000BF0123237010BDA800002000000000CD
S315000002204CBC040008B5034B1BB10349034800E06E
S3150000023000BF08BD00000000AC0000204CBC04005C
S3150000024008B5A8B10368C31A1A880A2A0AD95A89AE
S3150000025002B1825C9B881BB1C35C9A4238BF1A46C6
S31500000260104608BD042A4FF00002F3D8104608BD18
S3150000027041F078FE30B4002401250D4BC160A3FB8C
S315000002800232520901EB021101EB82030161436163
S3150000029003EB820102EB420301EB830380F8285053
S315000002A08460816142604362204630BC704700BF73
S315000002B0CDCCCCCC704700BF70B582B0069E056829
S315000002C00096AE68D0E90245B04728B9079B05EB12
S315000002D004156B6002B070BD012002B070BD00BF96
S315000002E08068704710B504463DF03EFA204610BDC2
S315000002F0F8B50446D0E90105854213DA01264FF028
S31500000300FF37E1684FEA051C41F80C2001EB0512A6
S315000003109360069B3544D36057600020A56084F83F
S315000003202860F8BD0246084602493BF049F801201C
S31500000330F8BD00BF102F04009446F0B4071F07EB6A
S315000003408207BCF1010F14DD0C46034600221D682E
S3150000035053F8046FB54206DA012243E90165D4E990
S315000003600065C4E90056BB4204F10404EFD1002A3B
S31500000370E7D1F0BC704700BF014B0360704700BF78
S315000003800830040070B40446D9B18968481C1AD0F4
S31500000390A56901EB4101E66805EB8100416806EBC2
S315000003A001118C68A34204DBC9688A4201DC70BC77
S315000003B070478068411C00EB400004D005EB8000CC
S315000003C0ECE7016AE4E7002070BC704790F828303B
S315000003D0002B00F0CC802DE9F04F82680546002AFC
S315000003E087B000F098804FF0000380F8283040F383
S315000003F0C580D0E903E069691C461E468946D5F8E2
S3150000040024800EF1040C10E05EF8237040F826708C
S3150000041049F826405CF82370013448F80370AF6849
S315000004200136A74203F1040312DD5CF82370791C40
S31500000430EAD15EF82310013A40F8221049F822402A
S3150000044048F80370AF680134A74203F10403ECDCFB
S3150000045000EB860009EB8601BA1BFFF76DFFD5E9B5
S315000004600526012000214FF0FF33C5E90701B360DF
S315000004701368D5F80CA073600AEB031040680130CE
S3150000048076D0696A51F823000391AB683060012B7E
S3150000049041DD4FF00109D3460192029608E02B6A2E
S315000004A002918B602F62AB6809F101094B4532DD81
S315000004B0019B53F8048F01930BEB08135C684FEA1A
S315000004C00817621C2AD0039B43F82840EF69029B59
S315000004D007EB470146F821401B6806EB81017A1CB1
S315000004E0A342C1F80480EA61D9DC029804E056F818
S315000004F02220A24238DC6046836803EB4302B3F154
S31500000500FF3F06EB820CF2D187608B60AB6809F186
S3150000051001094B45CCDC07B0BDE8F08F5BF807401E
S315000005200021D3E9022328460494FFF72BFF074650
S31500000530C2460024DDF81080059697B13E68311B4F
S3150000054088450EDD39462846FFF71CFF79680746C1
S3150000055009015BF801100E44B442B8BF3446002FBF
S31500000560ECD1D046059EAEE78B6087609BE770476F
S315000005706C6A0846039444F8231086E7D0E9040120
S315000005806BE700BF70B50546FFF720FFA868C8B146
S315000005902B6AAC6903EB430314EB830313D00020EF
S315000005A0EE6802E014EB83030CD0D3E9005212018B
S315000005B0B1589A682944884238BF084602EB42037C
S315000005C00132EFD170BD184670BD00BF2DE9F04F66
S315000005D080469FB0FFF7FAFED8F808C00024BCF1A9
S315000005E0000F40F3CF80694D1FE0232C23DD3D2C07
S315000005F004F11D01CCBF2A21C9B2D8F80C3026015E
S3150000060003EB0412D0689B5902909068D8F8242016
S31500000610019052F8242028460092224639F038F8F4
S31500000620D8F808300134A34209DD092CDDDC04F1D9
S315000006303001C9B2E1E704F15701C9B2DDE7002B89
S315000006409C4640F39E8000245020D8F82410D8F809
S315000006500C30043901EB8C061A6851F8047FDD680A
S315000006603A449042B8BF1046AC42B8BF2C46B1429D
S3150000067003F11003F0D1069000274FF0210B631C05
S3150000068007930DF173042E220DF1230303F8012FB6
S315000006909C42FBD1BCF1000F71DD002189460DF1B2
S315000006A02303D8F80C500593AB68BB423DDCEB68DE
S315000006B0BB423ADBD8F8243053F821305A1C34D0E8
S315000006C0286803EB8306034403EB83034FEA061E05
S315000006D0069E1A0192FBF6F29EFBF6F393428144C4
S315000006E023DA09A8013B0344059801F11D0601F12F
S315000006F0570A01F1300E024476B24FFA8AFA4FFADF
S315000007008EFE03E09A4283F800B00ED013F9010F73
S315000007102E28F7D1092929DD23292ADD3D29D4BF31
S3150000072030462A2018709A42F0D10131614505F110
S315000007301005B9D109F2FF33002BB8BF09F2FE73D9
S315000007409B120025124A13490093092FC8BF114670
S3150000075009AB3A4610488DF8745038F099FF079B5C
S3150000076001379F4208D0D8F808C08CE77046187049
S31500000770D9E750461870D6E71FB0BDE8F08F0023C2
S31500000780DFE700245023069376E700BF342F0400EA
S3150000079058A50400302F0400702F0400F8B5144645
S315000007A005461F460E46FFF711FE002CAB6807DB19
S315000007B0A34205DD6B6A002053F824303B60F8BD88
S315000007C02246304602493AF0FBFD0120F8BD00BF43
S315000007D0802F04000120704700207047836B0BB107
S315000007E01C21184710B541F0BDFB00BF836B0BB150
S315000007F00221184710B541F0B5FB00BFF0B50F69EF
S315000008008FB0002F44D0234B0D461A68064618F0C9
S31500000810D1FE214B044629461A68304618F0CCFE14
S31500000820237A0546012B0CD0092B1DD01846746976
S315000008303CF058F8194902463046A04701200FB04F
S31500000840F0BD214602A818F0D1FE294608A8246862
S3150000085018F0CCFEE5B102A821462B6808AA00F0E4
S3150000086057F900200FB0F0BD214602A818F0BEFED1
S31500000870294608A818F0BAFE23684DB12A683846FA
S31500000880009202A908AA00F089F800200FB0F0BD76
S3150000089041F068FB94310400983104002C300400C8
S315000008A02DE9F0410F6990B0002F4FD0284B0D462F
S315000008B01A68064618F07EFE264B044629461A6834
S315000008C0304618F079FE237A0546012B0DD0092B08
S315000008D01FD0184674693CF005F81F490246304699
S315000008E0A047012010B0BDE8F081214604A818F009
S315000008F07DFE29460AA8246818F078FE35B304A8B8
S3150000090021462B680AAA00F039F9002010B0BDE88C
S31500000910F081214604A897F901800AAE97F9007084
S3150000092018F064FE236830462946039318F05EFEED
S31500000930039B5DB12A684046CDE90062394604AAA8
S3150000094000F062F9002010B0BDE8F08141F00AFB2A
S3150000095094310400983104002C30040010B504468C
S31500000960034B044A044918F0FDFD204610BD00BFA4
S31500000970FD070000850C0000DD07000010B50446E9
S31500000980034B044A044918F0EDFD204610BD00BF94
S31500000990A1080000850D0000ED0700002DE9F04FCD
S315000009A00C68156883B0AC4240F0A780002C9846CE
S315000009B040F39A80002304320D1D55F8047B52F84B
S315000009C0046BB74240F0998001339C42F5D1012770
S315000009D001EB840351F8042F8B4202FB07F7F9D190
S315000009E0002F7EDD0C9B4FF0010908F1FF3C03F15F
S315000009F0FF3E2EE084FB0245002C75F100026BDB06
S31500000A0014F1804A45F100024FEADA7A4AEA420ACC
S31500000A101F2B6BDC09FA03F5013D4FEA650B4AFA19
S31500000A2003F30BEBDA7205EA0A059542D4BF1A46C0
S31500000A305A1C446832449442B8BF14468268023154
S31500000A40A242A8BF2246A1EB08018F420EF8012F51
S31500000A5047DD83696146C2681CF9014F23EAE375E5
S31500000A60A21A002B02FA05F2C8BF0023D0E90464DB
S31500000A70D8BF5B429442BDD182FB0245002C75F182
S31500000A80000AADBF4FF0804ADFF880A04FF0FF3B71
S31500000A904FF0000BB2F1004F08BF6FF0004AB7D01D
S31500000AA014EB0A02009245EB0B020192DDE90045C8
S31500000AB0002C75F1000208DA22466FF00044121984
S31500000AC00092019A42F100020192DDE900454FEAE7
S31500000AD0D47A4AEA450A9BE74FF0FF3BDFF82CA0A1
S31500000AE0DEE703B0BDE8F08F01277BE740F2671130
S31500000AF0034B044A04483CF067FC41F033FA00BF5C
S31500000B005830040068300400C4300400010000C0FE
S31500000B10F8B504681568AC422CD1002C28DD0025F8
S31500000B200432061D56F804CB52F8047BBC4521D18D
S31500000B300135AC42F6D1012200EB840450F8045F83
S31500000B40844205FB02F2F9D1002A10DD00209FED58
S31500000B500A7AF1EC017AF5EEC07AF1EE10FA48BFA6
S31500000B60F0EE477A01308242E3EC017AF1DCF8BD1F
S31500000B700122EBE741F0F6F900000000F8B5046841
S31500000B801568AC423BD1002C37DD00250432061D2A
S31500000B9056F804CB52F8047BBC4530D10135AC4243
S31500000BA0F6D1012200EB840450F8045F844205FB71
S31500000BB002F2F9D1002A1FDD0020B1EE087ADFED3E
S31500000BC0116A0BE0F5EEC07AF1EE10FA01D5F0EEFF
S31500000BD0667A01308242E3EC017A0DDDF1EC017AAE
S31500000BE0F4EEC77AF1EE10FAECDDF1EE087A013098
S31500000BF08242E3EC017AF1DCF8BD0122DCE741F048
S31500000C00B1F900BF00000000F8B5069E146835680B
S31500000C10AC4234D1002C30DD00250436171D57F8C0
S31500000C2004EB56F804CBE64529D10135AC42F6D1A2
S31500000C30012502EB840452F8046FA24206FB05F577
S31500000C40F9D1002D18DD079A5E1E571E08E0844272
S31500000C50B8BF04460232D21A954207F8014F0BDD9F
S31500000C60324616F9014F8C42F1DD0C460232D21A99
S31500000C70954207F8014FF3DCF8BD0125E3E741F0A3
S31500000C8071F900BF2DE9F043D1F8108083B0B8F1B7
S31500000C90000F6AD0C46807462368002220469B6975
S31500000CA00E4698470546C0B12368314600222046C5
S31500000CB0DB6998470646E0B12B78092B25D02368D7
S31500000CC0294620465B6A98472368204631465B6A78
S31500000CD09847002003B0BDE8F083254B38467C6971
S31500000CE0244A009324497B23A047012003B0BDE892
S31500000CF0F083224B38467C691E4A00931E497E23A8
S31500000D00A047012003B0BDE8F08395ED037AD0ED4E
S31500000D10037AC7EE277A17EE900A3FF02DFC08F10A
S31500000D20180908F1140741EC100B4946384639F00A
S31500000D3095FF96ED037ADFED126AC6EE877AF8FE26
S31500000D40677AFDEEE77A17EE903A6FF07F00326928
S31500000D507F2113448342B8BF03462869C8F804308C
S31500000D60C8E90302C8F80810A9E741F0FBF800BF7C
S31500000D70803104002C310400683104000036040080
S31500000D80000000002DE9F0430F6983B0002F48D022
S31500000D90C66805463368002230469B699847044674
S31500000DA098B30378092B08D03368304621465B6A2E
S31500000DB09847002003B0BDE8F083B1EE087AD0ED85
S31500000DC0037AC7EE277A17EE900A3FF0D5FB41EC7F
S31500000DD0100B3DF04BFC59EC108B256928463FF073
S31500000DE0B9FB42464B463FF069FA3FF0B7FE10F1B9
S31500000DF07F0F04DA6FF07F0038707D70D4E77E28AD
S31500000E00D8BF40B2F8DD7F20F6E7074B28466C696D
S31500000E10064A009306499123A047012003B0BDE886
S31500000E20F08341F09FF800BF803104002C310400AC
S31500000E3068310400836B0BB13C21184710B541F0B3
S31500000E4091F800BF2DE9F04F2DED028B1A78CDB049
S31500000E5093ED0D8ADDE95846D3ED0E8A5A9D002A98
S31500000E6000F0918021461EA818F0C0FB002C00F06F
S31500000E7088802368314624A8069318F0B7FB002E15
S31500000E807FD0336829462AA8079318F0AFFB002DB8
S31500000E9077D004231E9A29689A420891309370DC11
S31500000EA0D2F1040031AC0AD021460023012501E02D
S31500000EB0042B66D00133984241F8045BF8D19200C6
S31500000EC004EB80001FA941F0A1F80423249A36936D
S31500000ED09A4256DCD2F1040037AD0AD029460023E7
S31500000EE0012601E0042B4CD00133984241F8046BF3
S31500000EF0F8D1920025A905EB800041F087F8012280
S31500000F000323309834AF3FA998423ADD57F8046975
S31500000F10013B41F804694A6106FB02F25E1CF3D10B
S31500000F2001210323369E0DF1E80C47AA9E4228DDD7
S31500000F305CF80479013B42F80479516107FB01F141
S31500000F405F1CF3D10023AE469846844644AA3CAFC4
S31500000F509E4254F8041B14D05EF8040B814207D05D
S31500000F60012900F0558101280BD1C2F810801160CB
S31500000F700133042B02F1040207F1040768D09C45F3
S31500000F80E6D140F0EFFF214636A818F02FFB002CE3
S31500000F90F7D031463CA8246818F028FB002EF0D084
S31500000FA0294644A8366818F021FB002DE9D036986A
S31500000FB02968002840F33081012336AA02EB80001D
S31500000FC052F8045F824205FB03F3F9D13C980028EE
S31500000FD040F3268101253CAA02EB800052F8047FEB
S31500000FE0824207FB05F5F9D1449F002F40F3168195
S31500000FF044AA02EB87070120BC4652F8047F6245EB
S3150000100007FB00F0F9D1AB42BBD18342B9D1002B2B
S3150000101019DD224604EB8303F2EC017AB6EC017A81
S3150000102077EE877AB4EE678AF1EE10FA78FE277AC1
S31500001030F4EE678AF1EE10FA48BFF0EE687A9A424B
S31500001040E1EC017AE8D14DB0BDEC028BBDE8F08F42
S315000010502A9A3693042A94DCD2F104000AD029464F
S315000010600023012401E0042B8BD00133984241F880
S31500001070044BF8D1920005EB80002BA940F0C6FF87
S31500001080369C002C7FF77DAF4FF0000B3998389ACD
S315000010903A9D00FB02F105FB01F1439B0B901B916E
S315000010A09B0005FB00F158460C93379B0A92099367
S315000010B03C9B4B9A0D933D9B92000E933E9BCDE934
S315000010C001BB0F933F9B03951093419B199111937D
S315000010D0429B1A921293449B1393459B1493469BEF
S315000010E01593479B1693499B17934A9B1893489BC6
S315000010F01C93409B1D93099B9842A4DA012C3FF454
S3150000110040AFDDE9015600230A9A5F469342CDF8C7
S3150000111010B06FDA022C3FF434AF00220B99B846B8
S315000011208A42B646AC46AB4659DA032C3FF429AFA1
S315000011300899059601EB8C0A079901EB8E09069929
S3150000114001EB880500213CE00D9EB042BFF619AFC9
S315000011500E9EB342BFF615AF0F9EB242BFF611AF59
S31500001160109E8E427FF70DAF139ED5ED007AB042EA
S31500001170BFF607AF149EB342BFF603AF159EB24249
S31500001180BFF6FFAE169E8E427FF7FBAE99ED007A54
S31500001190042C77EE877A7FF4F4AEB4EE678AF1EE2C
S315000011A010FA78FE277AF4EE678AF1EE10FA48BF55
S315000011B0F0EE687AEAEC017A1A9E0131B1440C9E8F
S315000011C03544039E8E42BFDC039901328C44189944
S315000011D0059E8E44129988440B998A42A5DB5D468A
S315000011E0199A01331544179A1644119A17440A9A04
S315000011F093428FDB019B1B9ADDF810B013440193D9
S315000012001C9A029B0130134402931D9B9B4472E778
S31500001210C7F810803860ABE60123D7E60120F2E676
S315000012200125E1E610B50446034B044A044918F0CB
S3150000123099F9204610BD00BFE5290000192C0000D1
S31500001240350E00002DE9F04F04240E460968D1B092
S31500001250A142DDF86C811E92349470DC0746D1F110
S315000012600400994635AD0AD02A460023012401E040
S31500001270042B64D00133984242F8044BF8D18A001B
S3150000128005EB8000311D40F0C1FE0423D9F8002093
S315000012903A939A4253DCD2F104003BAC0AD0214681
S315000012A00023012601E0042B49D00133984241F87E
S315000012B0046BF8D1920009F1040104EB800040F0C0
S315000012C0A5FE01220323DDF8D0C038A843A99C451A
S315000012D035DD50F80469013B41F804694A6106FBB3
S315000012E002F25E1CF3D101210323DDF8E8903EA84B
S315000012F04BAA994523DD50F80469013B42F804697D
S31500001300516106FB01F15E1CF3D100231E4648AA7B
S315000013100DF5807E994555F8041B10D054F8040B42
S31500001320814205D001290CD0012808D1166111602F
S315000013300133042B02F104020DD09C45EAD140F0A2
S3150000134011FE0EEB83010E614EF823000133042BD0
S3150000135002F10402F1D1D8F800202E93042AEEDC23
S31500001360D2F104042FA80AD001460023012501E08A
S31500001370042BE4D001339C4241F8045BF8D192007F
S3150000138008F1040100EB840040F040FE2E9B002B88
S315000013900593D4DD0023319ACDE9233325930693B3
S315000013A013463098329903FB00F31B9201FB03F3BB
S315000013B001FB02F204912F992792269140994F9AA8
S315000013C00C9141992B930D914299479B0E9143990C
S315000013D028900F91459952002A9146995B001D91DC
S315000013E04899BC460891499909914A9911920A91DE
S315000013F04B99069A0B914D99109329914E99269BDC
S315000014001C914C9993422C9144992D9140F30A8258
S31500001410059B012B93D0259B2193239B2293249BF1
S31500001420209300230793079A289B934240F3E68173
S31500001430059B022B83D00027219B01251993229B14
S315000014401A93209B18935C9B023B1F931B9BBB42EA
S3150000145040F3C081059B032B3FF471AF1F9B189A85
S31500001460002103EB42065A9B1A9A019603EB4204AB
S315000014701E9B199A03EB4200A5E0002A73F10003B4
S31500001480C0F28881DDE902AB1AF180424BF100031C
S315000014904FEAD27A4AEA430AB9F1000FC9F1000BC2
S315000014A000F3078119F11F0FC0F2BF8105FA0BF394
S315000014B0013BDCF824204FEA630909EBDA794AFAA2
S315000014C00BFB03EA0A08C845D4BFD8460BF101084E
S315000014D07245DCF8289000F0F38082FB0E23002A88
S315000014E0CDE9022373F10003C0F25981DDE902ABB5
S315000014F01AF180424BF10003D20F42EA430EB9F1D2
S31500001500000FC9F1000300F3D48019F11F0FC0F2D8
S315000015108C8105FA03F2013A4FEA62094EFA03F3A7
S315000015200EEA020209EBDE794A45C8BF0133DCF850
S31500001530102098444245DCF814E000F0F68088FB61
S315000015400223002ACDE9022373F10003C0F22C81A5
S31500001550DDE9028918F1804249F10003D20F42EA1F
S315000015604302BEF1000FCEF1000800F3A2801EF187
S315000015701F0FC0F25A8105FA08F3013B4FEA630ECA
S3150000158042FA08F813400EEBD27E7345C8BF08F145
S315000015900108DCF80C20DCF82C3090444345B8BF39
S315000015A04346119A1444109A1044DCF830209342B2
S315000015B0A8BF1346059A042A7FF4C1AE019A0131E9
S315000015C022F8023F0192049B994280F2F280069A29
S315000015D00C9EDCF804A0B242BFF6B1AE0D9B9E464F
S315000015E0079B9E457FF7ABAE0E9EBE427FF7A7AE2A
S315000015F00F9EB142BFF6A3AE089EB0F90080B2427C
S31500001600DCF80890D044BFF69AAE099A9A427FF762
S3150000161096AE0A9BBB427FF792AE0B9B9942BFF6F2
S315000016208EAEDCE90632B4F900E008FA03F8CE44DF
S315000016300EFA03FE424588FB0223DCF82090CDE932
S3150000164002237FF41AAF002A73F10003ADBF4FF0F7
S31500001650804ADFF8F4A14FF0FF3B4FF0000BB8F1E2
S31500001660004F08BF6FF0004A3FF416AF029B13EB22
S315000016700A031293039B43EB0B031393DDE9122337
S31500001680002A73F1000608DA13466FF000429B1831
S315000016901293139B43F100031393129BB9F1000FAE
S315000016A04FEAD37A139BC9F1000B4AEA430A7FF744
S315000016B0F9AE4FF4B371604B604A61483BF084FE6B
S315000016C08EFB0E23002ACDE9022373F10003B3BF7C
S315000016D04FF0FF3B4FF0804A4FF0000BDFF868A158
S315000016E0BEF1004F08BF6FF0004E3FF408AF029BFB
S315000016F01AEB03031493039B4BEB03031593DDE9EA
S315000017001423002A73F1000608DA13466FF000422C
S315000017109B181493159B43F100031593DDE914AB55
S315000017204FEADA7E4EEA4B0EE9E688FB0823002AEA
S31500001730CDE9022373F10003B3BF4FF0FF3A4FF038
S3150000174080494FF0000ADFF80091B8F1004F08BF5A
S315000017506FF000423FF405AF029B13EB09031693AB
S31500001760039B43EB0A031793DDE91623002A73F163
S31500001770000608DA13466FF000429B181693179B73
S3150000178043F100031793DDE916894346DA0F42EA6F
S315000017904902E6E64FF0FF3BDFF8ACA066E74FF004
S315000017A0FF3BDFF8A4A0A2E74FF0FF3ADFF89890DE
S315000017B0D2E7189B049A0137134418931C9A1A9B74
S315000017C013441A931D9A199B134419931B9BBB42EE
S315000017D03FF740AE079B279A01330793209B13449C
S315000017E02093299A229B134422932A9A219B1344DD
S315000017F02193079A289B93423FF71AAE069B2B9A92
S3150000180001330693249B134424932C9A239B13445D
S3150000181023932D9A259B13442593069A269B934240
S315000018203FF7F6AD51B0BDE8F08F40F26711054BBA
S31500001830024A03483BF0C8FD9C31040068300400AE
S31500001840C430040058300400010000C02DE9F04FF8
S31500001850D3E90924ADF5077DDD6A72925A69996963
S315000018609868909FD3F830C0DE696D9473921C6AB5
S315000018705A686E95919D75917690394650A8CDE936
S315000018806FC674927194D3E90332929ECDE9773292
S3150000189017F0ACFE56A8294617F0A8FE509ADDF8B8
S315000018A0588114464245B8BF44460423A01A8DF811
S315000018B0B0315C9401F01F80002C40F3C3810DF51C
S315000018C0BA79494600234FF0010C02E0A34200F02A
S315000018D0B9810133984241F804CBF7D1920009EB64
S315000018E0800051A940F092FBA045649400F3AA81C0
S315000018F0B4EB080000F0FB87002C40F3A3810DF544
S31500001900CA7B5A460023012102E0A34200F09A81D5
S315000019100133984242F8041BF7D14FEA88020BEBD9
S31500001920800057A940F072FBDDF87081DDF890A1C8
S31500001930D04500F09081631E00F18481984540F304
S31500001940818186AA02EB83029A4552F8A42C40F3C1
S3150000195079819C4664A8A10000EB840454F804092C
S31500001960904200F0A283012A00F06E81012840F027
S31500001970CD8003220DF5C87E8DF8B0215CA801222A
S31500001980DEF8004000EB01094FF0000A9446A0463D
S315000019908346CDE98022CDE982228492714407E014
S315000019A0013B581C4FF0010A02FB0CFC00F0D482EC
S315000019B0984540F3E887DBF8000051F8042998427F
S315000019C040F3E18759F80449A242E9D00246444669
S315000019D05846BAF1000F01D0CDF810C203F1010C40
S315000019E000EB8C094FF001084FF0000A93460EEB0E
S315000019F08C0C0EE09B4540F3B78759F80429013B50
S31500001A0002FB08F85A1C00F0A0879C428A4640F365
S31500001A10DA875CF804190129ECD05A46BAF1000FAE
S31500001A2001D0CDF80C8200EB83084FF0000B4FF08D
S31500001A300109944608F104080EEB830A0CE0013B09
S31500001A405A1C01FB09F900F084879C4240F3B387D6
S31500001A504FF0010B5AF804199C4540F39C8758F83F
S31500001A6004298A42EBD0114662468C46BBF1000F30
S31500001A7001D0CDF808920EEB830104318B464FF06E
S31500001A80000A61464FF00108DC4600EB830911E0CD
S31500001A909C4240F388875CF80419013B01FB08F877
S31500001AA0591C00F05A879A4240F389874FF0010A81
S31500001AB059F804190129EBD0BAF1000F01D0CDF87D
S31500001AC00482591C00EB810C4FF00009012090465E
S31500001AD00EEB810E07E0013B5A1C4FF0010901FB9A
S31500001AE000F000F03E879C4240F3468798455EF83A
S31500001AF0041940F341875CF804299142EBD0B9F10F
S31500001B00000F00D0809004238DF8B031307A07287A
S31500001B1000F0288209280BD03AF0E4FE327A01461A
S31500001B20A54837F0B5FD01200DF5077DBDE8F08F1E
S31500001B3039463EA817F05AFD002F00F083803B6817
S31500001B40294644A81E9317F051FD002D7AD02B6824
S31500001B5031464AA8209317F049FD04233E9AD6F849
S31500001B6000809A4250936DDCD2F104000AD0002323
S31500001B70012451A901E0042B64D00133984241F8B5
S31500001B80044BF8D151AB920003EB80003FA940F023
S31500001B903DFA0423449A56939A4253DCD2F1040048
S31500001BA00AD00023012457A901E0042B4AD00133AF
S31500001BB0984241F8044BF8D157AB920003EB8000F2
S31500001BC045A940F023FA01220323509F54AC5FA994
S31500001BD09F4237DD54F80409013B41F804095D1CB6
S31500001BE04A6100FB02F2F3D101210323569E5AAC4F
S31500001BF067AA9E4226DD54F80409013B42F804090F
S31500001C00516100FB01F1581CF3D100218C4664ABF5
S31500001C1051AA57AD8E4252F8040B13D055F8044B17
S31500001C20A04207D0012800F06A86012C0AD1C3F829
S31500001C3010C018600131042903F1040300F0FE838B
S31500001C408F42E7D140F08EF902220DF5B87E8DF86D
S31500001C50B02164A893E6594648464FEA880240F008
S31500001C60C7F900287FF467AE0124307A8DF8B041B9
S31500001C70072840F02982394656A817F0B7FC002FEE
S31500001C80E0D029465CA83F6817F0B0FC002DD9D0FB
S31500001C90314664A8D5F8008017F0A8FC779B789A9F
S31500001CA0D6F80090934212931592CBDC56990029F0
S31500001CB008DD56AB03EB810153F8042F994202FB72
S31500001CC004F4F9D15C98002840F3318601215CAB1D
S31500001CD003EB800053F8042F984202FB01F1F9D17F
S31500001CE0649D002D40F32E86012364AA02EB850530
S31500001CF052F8040F954200FB03F3F9D1A142A1D19A
S31500001D008B429FD16D9A11460A922C4A914299DBD9
S31500001D106E9991420C9195DB47F6FE720A999142B3
S31500001D2090DC0C9991428DDC002B40F3A8810122B6
S31500001D30769C7098DDF8C4B1DDF8CCA104900694C9
S31500001D406042CBF1000410948AFB0A450E90049879
S31500001D50CDE92445749E80FB00450E98714202FA37
S31500001D6000FC02FA01FE1891B91E0CF1FF37CDE90D
S31500001D7026453C4610981B97759F824001EB43030E
S31500001D8008976F9F0EF1FF30013A16936310199072
S31500001D9017974010A9F102071C935310069D1A903D
S31500001DA0DDF8C8E150461D92DDF810A0A8F1020C3E
S31500001DB0289306978DE000BFAC3104000280FFFF38
S31500001DC084FB0034002BCDE9043474F10003C0F227
S31500001DD05B81049B13F18042059B43F10009D30FFD
S31500001DE043EA4903002E00F3948516F11F0FC0F253
S31500001DF09785199A189C02EA03091A9A43FA04F479
S31500001E0002EBD372089B9145C8BF0134984500F098
S31500001E10CD80089B88FB0323002ACDE9042373F1B8
S31500001E200003C0F23781DDE9047817F1804248F1FA
S31500001E300008D30F43EA4803002D00F36A8515F125
S31500001E401F0FC0F26D851B9A0E9F02EA03081C9AAB
S31500001E5002EBD3723B419045C8BF01331C44544545
S31500001E6000F0DA808AFB0434002BCDE9043474F1E7
S31500001E700003C0F21581DDE9047817F1804248F1CC
S31500001E800004D30F43EA4403BBF1000F00F341857E
S31500001E901BF11F0FC0F244851D9A109F02EA03042E
S31500001EA0289A02EBD3723B419442C8BF0133179A7A
S31500001EB01344129A9342B8BF1346159A9342A8BF89
S31500001EC01346069A22F8023F169B06928B4200F0B2
S31500001ED0D6800A9B31F9024F3CF9028F1C440C9BB9
S31500001EE004FA0EF49844844208FA0EF87FF468AFB8
S31500001EF0DDE92423002ACDE9042373F10003B3BFEF
S31500001F004FF0FF3300234FF08049DFF84895B4F1D6
S31500001F10004F1A4608BF6FF000433FF463AF049BBF
S31500001F2013EB09031E931346059A42EB03031F9313
S31500001F30DDE91E34002B74F1000207DA6FF000426F
S31500001F409B181E931F9B43F100031F931E9B1F9A12
S31500001F50DB0F43EA420345E7307ACDF810C2072883
S31500001F607FF4D8AD394656A817F040FB002F3FF452
S31500001F7069AE29465CA83C6817F038FB002D3FF493
S31500001F8061AE314664A82D6817F030FB33686CA843
S31500001F90029364AB0193224600955CAB56A9FFF70A
S31500001FA051F900200DF5077DBDE8F08F88FB082369
S31500001FB0002ACDE9042373F10003B3BF4FF0FF33CA
S31500001FC000234FF08049DFF88C94B8F1004F1A4691
S31500001FD008BF6FF000433FF42FAFDDE9047817EB3D
S31500001FE0090320931346424642EB03032193DDE99E
S31500001FF02023002A73F1000708DA13466FF0004227
S315000020009B182093219B43F100032193DDE920785F
S31500002010FB0F43EA48030FE7DDE92623002ACDE953
S31500002020042373F10003B3BF4FF0FF394FF080482C
S315000020304FF00009DFF81C84B4F1004F08BF6FF0C1
S3150000204000433FF421AF049B13EB08032293059B47
S3150000205043EB09032393DDE92234002B74F10002DC
S3150000206007DA6FF000429B182293239B43F100038B
S315000020702393DDE92278FB0F43EA480304E70020B7
S315000020800DF5077DBDE8F08F4FF0FF33DFF8C49301
S315000020901A4644E74FF0FF33DFF8B8931A469CE739
S315000020A04FF0FF39DFF8AC83CDE7BCF1010CFFF44C
S315000020B0C9ADE0457FF7C6AD5CAA02EB8C02E245EE
S315000020C052683FF74BACBDE509287FF425AD39468C
S315000020D056A817F08BFA002F3FF4B4AD29465CA83A
S315000020E03C6817F083FA002D3FF4ACAD314664A886
S315000020F02D6817F07BFADDE977239A42D6F800E0DF
S315000021003FF7A0AD6D9B802B3FF79CAD6E9A802A62
S315000021103FF798AD13F17F0FFFF694AD12F17F0FE5
S31500002120FFF690AD569F002F40F30984012656A96D
S3150000213001EB870751F8040F8F4200FB06F6F9D131
S315000021405C9F002F40F3F98301205CA901EB870C0B
S3150000215051F8047F8C4507FB00F0F9D1649F002FEE
S3150000216040F3E8834FF0010C64A901EB870851F8AE
S31500002170047F414507FB0CFCF9D1B0427FF462AD08
S3150000218084457FF45FADBCF1000F7FF778AF4FF069
S31500002190FF37E11901209146AE4E8C443D440EEBCB
S315000021A007049BE088FB0389B8F1000F79F100036F
S315000021B0C0F23B8118F1804A49F1000E4FEADA7A03
S315000021C04AEA4E0ABBF1000FCBF1000E00F3A183E1
S315000021D01BF11F0FC0F2A48300FA0EF909F1FF39B3
S315000021E04FEA6908759B4AFA0EFE08EBDA7809EAA7
S315000021F00A09C145C8BF0EF1010E9A42DDF8D8A101
S3150000220000F0AE8082FB0323002ACDE9042373F19C
S315000022100003C0F20D81049B13F18048059B4FEA31
S31500002220D87943F1000349EA4309BAF1000FCAF12C
S31500002230000200F36E831AF11F0FC0F2718300FAD9
S3150000224002F808F1FF384FEA680A49FA02F208EA8A
S3150000225009080AEBD97AD045C8BF0132DDF8C0813A
S3150000226002EB0E034345719A00F0AE8088FB0389AA
S31500002270B8F1000F79F10003C0F2DD8018F1804E4D
S3150000228049F100084FEADE7E4EEA480E002AC2F106
S31500002290000800F33E831F32C0F2428300FA08F3BF
S315000022A0013B4FEA63094EFA08F803EA0E0309EB0D
S315000022B0DE794B45C8BF08F101086F9A779B424407
S315000022C09342B8BF1346789A9342A8BF13468C45EB
S315000022D004F8013F3FF4D3AEDDE96D3911F9018F02
S315000022E0729A434415F901EFDDF8CC819340CE4450
S315000022F04345DDF8D0B10EFA02F27FF453AF83FB0B
S315000023000389B8F1000F79F1000EB5BFBA464FF058
S31500002310000AB6464FF0804EB3F1004F08BF6FF08B
S31500002320004A3FF44FAF18EB0E03109349EB0A0334
S315000023301193DDE91089B8F1000F79F1000308DA8D
S315000023406FF0004E18EB0E031093119B43F1000340
S315000023501193DDE910894FEAD87A4AEA490A31E74A
S3150000236082FB0289B8F1000F79F10003B9BF334649
S31500002370BB464FF080434FF0000BB2F1004FCDE962
S31500002380048908BF6FF000493FF44FAFDDE90489C7
S3150000239018EB03030E9349EB0B030F93DDE90E23B2
S315000023A0002A73F1000808DA13466FF000429B1802
S315000023B00E930F9B43F100030F930E9B4FEAD379C5
S315000023C00F9B49EA430930E783FB0389B8F1000F05
S315000023D079F1000EB5BFB6464FF0804EBA464FF0C3
S315000023E0000AB3F1004F08BF6FF0004E3FF44EAF46
S315000023F018EB0E03129349EB0A031393DDE91289D6
S31500002400B8F1000F79F1000308DA6FF0004E18EB0F
S315000024100E031293139B43F100031393DDE9128914
S315000024204FEAD87E4EEA490E30E7B646BA467AE714
S315000024303346BB46AAE7B646BA46D9E74A9A569104
S31500002440042A3FF7FFABD2F104000DD0002301248C
S3150000245057A904E0010000C0042B3FF4F3AB01339D
S31500002460984241F8044BF7D157AB03EB800092003A
S315000024704BA93FF0CBFD569B002B18937FF7E2ABA1
S31500002480599900220B46589C5A9803FB04F300FB0B
S3150000249003F33C9300FB01F3CDE93632579B4FF033
S315000024A0FF373A935C9B6FF00046154626935D9B7B
S315000024B0399229935E9B22942A935F9B24912B93B6
S315000024C0619B28903493629BCDF8E0802C93639BAC
S315000024D01D922D93649BDFF808C52E93659B2F9361
S315000024E0669B3093679B3193699B35936A9B3293C6
S315000024F06B9B3393689B3D93609B3B933A9B1D9AE2
S3150000250093427FF7BCAD189B012B3FF49BAB4FF07A
S31500002510000E7446399B1A93379B1B93389B19936D
S31500002520229BA34240F3D381189B022B3FF48AAB34
S315000025304FF0000E1A9B10931B9B1293199B0E9340
S31500002540249B734540F3B281189B032B3FF47AAB6F
S315000025500E9B129A013B1C93209B0020134416935A
S31500002560109A1E9B179413441593C6E082FB012311
S31500002570002A73F10001C0F26F814FF0804A4FF0DC
S31500002580000B12EB0A0143EB0B0304910593DDE903
S315000025900434002B74F1000205DA9B190493059BA1
S315000025A045EB03030593DDE90412CB0F43EA42032F
S315000025B0B9F1000FC9F1000A00F3AB8119F11F0F41
S315000025C0C0F2AE81012202FA0AF909F1FF3949FA8D
S315000025D002F1759A01EBD37143FA0AFA09EA030983
S315000025E08945D4BFD1460AF101099045769900F094
S315000025F01F8182FB0823002A73F10004C0F20081C8
S315000026004FF0804A4FF0000B12EB0A0443EB0B032A
S3150000261006940793DDE90634002B74F1000205DA0F
S315000026209B190693079B45EB03030793DDE906AB6E
S315000026305346DB0F43EA4B030029C1F1000200F3C6
S3150000264068811F31C0F26C81012101FA02F808F19C
S31500002650FF3848FA01FA0AEBD37A43FA02F208EA9B
S3150000266003035345C8BF0132709B02EB090199422F
S31500002670DDF8C4A100F0B08083FB0123002A73F1CA
S315000026800001C0F28E8012F1804843F100034FEA48
S31500002690D87848EA4308BAF1000FCAF1000200F3FD
S315000026A03881169B33991AF11F0F0B4416932D99F7
S315000026B0159B0B441593C0F23381012303FA02F1F3
S315000026C0013941FA03F948FA02F201EA080309EB73
S315000026D0D8794B45D4BF914602F101096F9B779A91
S315000026E04B449A42B8BF1A46789B01309A42A8BF1B
S315000026F01A461C9B03F8012F1C93289B834240F328
S31500002700C280269B1D9A93427FF79CAA299B179A03
S3150000271093427FF797AA2A9B73457FF793AA2B9B31
S3150000272083427FF78FAA159B1D9A93F900102E9B63
S3150000273093427FF787AA2F9B179A93427FF782AA25
S31500002740309B73457FF77EAA319B83427FF77AAA37
S31500002750169B93F90080189B042B7FF473AA6D9A3D
S31500002760729B11446E9C739A9940A0449142DDF885
S31500002770D09108FA03F87FF4F9AE81FB0123002A11
S3150000278073F10004B9BFE246BB464FF0804A4FF0F2
S31500002790000BB1F1004F08BF6FF000433FF408AFE4
S315000027A0EFE6E046B94612EB080143EB0903089150
S315000027B00993DDE90834002B74F1000205DA9B1950
S315000027C00893099B45EB03030993DDE908124FEAD9
S315000027D0D17848EA42085EE781FB0123002A73F1BB
S315000027E00004B5BFE0464FF08048B9464FF00009F7
S315000027F0B1F1004F08BF6FF000483FF44CAFD2E78D
S3150000280012EB0C047B410A940B93DDE90A34002B8E
S3150000281074F1000205DA9B190A930B9B45EB03033F
S315000028200B93DDE90AAB5346DB0F43EA4B0303E7A1
S3150000283088FB0823002A73F10004B9BFE246BB46B1
S315000028404FF0804A4FF0000BB8F1004F08BF6FF011
S3150000285000433FF4F1AED7E612EB0C017B410C913D
S315000028600D93DDE90C34002B74F1000205DA9B1997
S315000028700C930D9B45EB03030D93DDE90C12CB0F77
S3150000288043EA420394E60E9B289A0EF1010E134486
S315000028900E93329A129B179C134412932C9A109BF8
S315000028A013441093249B73453FF74EAE199B369AFB
S315000028B0013413441993359A1B9B13441B93349A82
S315000028C01A9B13441A93229BA3423FF72DAE1D9BDE
S315000028D03C9A01331D93389B134438933D9A379B9A
S315000028E0134437933B9A399B1344399306E60DF507
S315000028F0CA7BFFF712B80DF5BA79FEF7EFBF5CA8F1
S3150000290000EB8100C0F810C05CA840F82140FFF73A
S3150000291091B94FF4B3712E4B2E4A2F483AF054FD1D
S3150000292040F267112D4B2B4A2B483AF04DFD012101
S31500002930FFF7D6B94FF0010C1FE401200EE4012683
S31500002940FFF7FEBB0123FFF7D9B9CDF80C82FFF7DD
S31500002950DDB8CDF80892FFF7D9B8CDF80482FFF7B5
S31500002960D5B88090FFF7D2B8BAF1000F3FF46AA944
S31500002970CDF80C82FFF766B9B9F1000F3FF462A9F2
S315000029808090FFF75FB9BAF1000F3FF45BA9CDF86D
S3150000299010C2FFF757B9BBF1000F3FF453A9CDF8AA
S315000029A00892FFF74FB9BAF1000F3FF44BA9CDF8E3
S315000029B00482FFF747B9CDF808923FF0D3FACDF875
S315000029C004823FF0CFFACDF80C823FF0CBFA00BF7D
S315000029D09C31040068300400C43004005830040000
S315000029E0010000C02DE9F047D1E904A984B0BAF18D
S315000029F0000F3FD0204B0C461A68054616F0DAFD4C
S31500002A001E4B21461A680746284616F0D3FD1C4B76
S31500002A108046214628461A6816F0CEFD0646007AFC
S31500002A2001281AD0092801D007280BD153464A4657
S31500002A3021462846CDE901860097FEF707FF04B038
S31500002A40BDE8F08739F04EFF327A01460D4836F080
S31500002A501FFE012004B0BDE8F087284653464A46CB
S31500002A602146CDE901860097FEF7ECF9002004B077
S31500002A70BDE8F0873FF076FA2432040028320400DD
S31500002A802C320400AC3104002DE9F04F2DED068BFD
S31500002A90834681B00D46DDE910A4194610461E4650
S31500002AA0174638F077FC9AF8003080F00100092BC1
S31500002AB020707ED0072B08D0012B00F089800020E3
S31500002AC001B0BDEC068BBDE8F08F4FF000080F217A
S31500002AD03A69336952425B42C4E90A23DAF8103094
S31500002AE0DFF82C91236397ED03AA96ED038AB4EEE3
S31500002AF0C8AAF1EE10FA616254BF1AEE100A18EE77
S31500002B00100A3DF039FD02460B463DF0D7FB06465E
S31500002B100F4618EE100A3DF02FFD32463B463DF0BB
S31500002B20ADFE02460B46DAF80C0043EC192B3DF0DD
S31500002B3023FD42464B463DF077FD02460B463046A6
S31500002B4039463DF09BFE41EC180B1AEE100A3DF09B
S31500002B5013FD32463B463DF091FE271D04F1140657
S31500002B6041EC100B3946304638F0BAF8B0EE490A57
S31500002B70F0EE690A04F1080104F1180038F0B0F823
S31500002B8004F1200104F11C00B0EE480AF0EE680AD8
S31500002B9038F0A6F85246584604F1100329781093E7
S31500002BA004F10C0301B0BDEC068BBDE8F04F38F024
S31500002BB0E7B93A693369DAF8101052425B42216389
S31500002BC04FF000081421C4E90A23DFF848908AE789
S31500002BD02B78012B0CD0032B0FD0022B0BBF4FF001
S31500002BE07E536FF40002074A074B6263A36366E7EE
S31500002BF00022054B6263A36361E70022034B626315
S31500002C00A3635CE7000080BFFFFF7F7F0000C0403A
S31500002C100000E040000030412DE9F0430B6983B02D
S31500002C20002B63D04B690D46002B5FD0C468064667
S31500002C302368002220469B699847074600283BD018
S31500002C4023680122294620469B699847804600282A
S31500002C503FD02368002229462046DB6998478146F3
S31500002C60E8B12B69009001936969304643463A46BC
S31500002C70FFF70AFF054670B92368394620465B6AA6
S31500002C8098472368414620465B6A98472368494629
S31500002C9020465B6A9847284603B0BDE8F0830125C5
S31500002CA0134B30467469134A009313495C23A047BB
S31500002CB0284603B0BDE8F0830125104B3046746901
S31500002CC00C4A00930C495623A047284603B0BDE89A
S31500002CD0F08301250A4B30467469064A009306497B
S31500002CE05923A047284603B0BDE8F0833FF03AF9E0
S31500002CF000360400C831040068310400FC310400C9
S31500002D00103204002DE9F04F2DED048B0B680446BC
S31500002D1087B0002B75D01F68012F72DD4868894681
S31500002D20002859D0D0F800B0BBF1010F55D1E568A5
S31500002D3000222B6828469B6998470646002800F023
S31500002D4084802B68002249462846DB6998478246DC
S31500002D50002800F0848000783378834208D05FE052
S31500002D602B68414628465B6A98475F4500F081809C
S31500002D702B685A46494628469B6998470BF1010B32
S31500002D808046002800F0E6800146304638F002FB17
S31500002D90002800F0E980307898F80030834240F04F
S31500002DA0ED80092BDCD13269D8F810309A4240F018
S31500002DB0078196ED037AD8ED037AB4EE677AF1EEE1
S31500002DC010FACDD0884B656920460093874A49237F
S31500002DD08749A84701270EE083460127854A864B87
S31500002DE065692046CDE90032844933237F4ACDF810
S31500002DF008B00397A847384607B0BDEC048BBDE87A
S31500002E00F08F01277E4B20466569784A0093784902
S31500002E103223A847384607B0BDEC048BBDE8F08FD7
S31500002E20D4F8148039F05EFD0546307839F05AFD45
S31500002E30744A754BCDE90250CDE9003220463E2357
S31500002E406A4A72495F46C047D5E7714B65692046B5
S31500002E500093664A382366495F46A847CBE76D4B21
S31500002E60656920460093614A3B2361495F46A8474E
S31500002E70C1E79AF80000012800F09580092840F083
S31500002E80A9802821A36B20469847B900C9F81000ED
S31500002E9000F124028346236C204698470746002803
S31500002EA0A9D114213369DAF810205B42F068CBF817
S31500002EB00830CBF80C20CBF820103DF05DFB024625
S31500002EC00B4643EC192B3DF0F9F98046DAF80C0075
S31500002ED089463DF051FB00224F4B3DF0A5FB0246D3
S31500002EE00B46404649463DF0C9FC42464B4641EC3E
S31500002EF0180B51EC190B3DF0C1FC0BF118090BF145
S31500002F00100841EC100B4946404637F0E9FEB0EE9A
S31500002F10480AF0EE680A0BF11C010BF1140037F0B9
S31500002F20DFFE0BF104033946009320465B4652460A
S31500002F3038F026F8074600287FF45DAF2B68314647
S31500002F4028465B6A98472B68514628465B6A98472D
S31500002F50002750E7314B656920460093234A4123F9
S31500002F602349A847012746E72D4B6569204600936C
S31500002F701E4A42231E49A84701273CE7666939F0E5
S31500002F80B1FC054698F8000039F0ACFC254A1D4B0B
S31500002F90CDE90250CDE9003220464323134A1B49AE
S31500002FA0B047012727E7B9002046236C05AA9847B2
S31500002FB0074600287FF41FAF059BC9F81030BDE710
S31500002FC0194B656920460093084A47230849A847D4
S31500002FD0012710E7656939F085FC14490246204649
S31500002FE0A847012707E700BF8433040030320400F6
S31500002FF068310400004D04008C3204007032040075
S3150000300060320400DC320400F8320400C0320400EE
S31500003010A032040000360400000030418031040074
S31500003020083304003433040040330400BC33040086
S315000030302DE9F04F0022A9B005460E4616F0BCFA5F
S315000030400446007A012800F0B581092840F00D8178
S315000030503769D6F8008028466B6C796AB8F1000F9C
S3150000306000F01982D8F800809847B8F1000F0F9049
S3150000307040F328820022CDE900ABB3461646A0F104
S31500003080040932465946284616F094FA002800F0FC
S315000030901C8203680136B04549F8043FF1D1CDF8EA
S315000030A038803D6A3B681695BD687A680895BD69A3
S315000030B03E690495FD68214617957D69FF6922A83A
S315000030C010931192059716F091FADDE910329342AA
S315000030D0216800F3FA81089B802B00F3F681089B98
S315000030E07F33C0F2F2812298002840F3D881012272
S315000030F022AB03EB800053F8044F984204FB02F224
S31500003100F9D11A92002A00F0F380089B169A934090
S3150000311086FB037817F1804A48F1000BBAF1000FDD
S3150000312009937BF10003CDE9067806DA6FF00043D8
S3150000313000221AEB030A4BEB020B4FF0010C4FF087
S31500003140FF3E4FF0000885FB0534CDE9183486FBB9
S3150000315006340598049A40425242CDE920340CFACE
S3150000316000F30CFA02F771440A921B904FEADA72E6
S3150000317003EB0E00DDE90E4303EB840377440B916A
S3150000318042EA4B0240FA0CF1043B47FA0CF91C9058
S315000031901D911F920CF1404C1E9300960397009BC5
S315000031A0099A9342DDE9063400F0C780002B74F1DA
S315000031B00003C0F2E8801F9B049A002A00F37B817B
S315000031C0049A1F32C0F27081039A09EBD37102EAA6
S315000031D003000A9A43FA02F20E9B8842C8BF0132E4
S315000031E0002B4ED00F9B0C95A3F1040A1CE000990E
S315000031F083FB0101002871F10003C0F28C8010F1FD
S31500003200804341F10001DB0F43EA4103039901EAE0
S31500003210030009EBD3710A9C23418842C8BF0133DE
S315000032201A441E9B53452BD05AF8043F089913F9AC
S3150000323008300B4416998B4000999942D7D1DDE9A5
S315000032402045002C204675F10004B9BF6446F346BC
S315000032504FF080444FF0000BB3F1004F29465CD18C
S3150000326049466FF000430398D5E76C6939F03AFB9D
S31500003270974902462846A047012029B0BDE8F08FAD
S315000032800C9D954238D082FB05ABBAF1000F7BF15D
S3150000329000037BDB1AF180424BF10001D30F43EAB6
S315000032A04103059A002A00F30681059A1F32C0F2EF
S315000032B0FB801C9A1B9802EA03011D9A08F101087B
S315000032C002EBD37203419142C8BF0133179A1344EC
S315000032D0109A9342B8BF1346119A9342A8BF134659
S315000032E00B9A02F8013F1A9B0B9243453FF657AFE4
S315000032F0002029B0BDE8F08FA5F10041B1FA81F1B7
S31500003300DDE918AB49096FF000430029C9D14FF038
S31500003310804100203CE06446F346061941EB0B076A
S31500003320002E77F1000304DA6FF00043F61847F138
S315000033300007F30F43EA470368E70999002B74F186
S315000033400003B5BF63464FF0804372460022B1F1D9
S31500003350004F08BF6FF000433FF42EAFDDE906AB28
S3150000336013EB0A0312935B4642EB03031393DDE967
S315000033701234002B74F100026ADBDDE91212CB0F66
S3150000338043EA420318E763467246E7E7614670463A
S315000033901AEB010314934BEB00031593DDE9143488
S315000033A0002B74F1000261DBDDE91412CB0F43EA56
S315000033B0420376E73768002F66D028466B6C316982
S315000033C0D7F800909847B9F1000F80460FDD002727
S315000033D0A0F1040A3A463146284616F0EBF80028D2
S315000033E073D003680137B9454AF8043FF2D14D4618
S315000033F0214622A816F0FAF822982468002851DD02
S31500003400012222AB03EB800053F8041F984201FB14
S3150000341002F2F9D11046002A3FF46AAF002308EB06
S315000034208507043FDFED2B7A5DB19E00A8F104020B
S3150000343052F8041F314491ED007ABA4277EE877A4A
S31500003440F6D101338342E4EC017AEBD3002050E756
S315000034506FF000429B181293139B43F100031393E2
S31500003460DDE91212CB0F43EA4203A5E66FF00042F4
S315000034709B181493159B43F100031593DDE9141271
S31500003480CB0F43EA42030CE728466B6C3169984739
S315000034903D468046ACE79847CDE90E8001E601231C
S315000034A01A9332E60120B9E740F267110A4B0B4A3C
S315000034B00B4839F089FF4FF4B3710A4B074A0848A5
S315000034C039F082FFCDF83880EBE53EF04BFD00BFCA
S315000034D0BC330400000000005830040068300400CB
S315000034E0C43004009C31040010B504460021034B8F
S315000034F0034A16F037F8204610BD00BF31300000F1
S31500003500052D0000002210B504461146024B16F0A8
S3150000351029F8204610BD00BFE93B0000002210B587
S3150000352004461146024B16F01DF8204610BD00BF9A
S31500003530E13B00002DE9F04F066885B0002E0291B0
S3150000354053DD98461B68711E99424ED11768002FAD
S31500003550C0F29F80BE4248DD00EB87025168BC0086
S31500003560002F00F09A80D0F804B0002B3DD0012542
S315000035700022AE469A465D4608F1040C00F10809A1
S3150000358005E0B24231D0524559F8045B2DD05CF8C3
S31500003590043BAB4229D10132BA4205FB0EFEF0D103
S315000035A00132B2425346CDF800E020DA00EB820544
S315000035B0BB426D6819DD971C00EB87072046404427
S315000035C040684FF0010EA8420FD1541CB44205FBCF
S315000035D00EFE0EDA9342104657F8045B05DD8000B6
S315000035E0404440682246A842EFD03EF0BBFC4FF074
S315000035F0010E009B002B42DD4FF00008F346C24649
S31500003600C1460EFB01F301930E9B4FEA8E00043B6D
S315000036100393BEF1000F29DD0025029BABEB080CDE
S3150000362003EB8806039B4FEA8C0CACF1040C03EB0E
S315000036308A070129B6EC017A24DD012300240CEB6C
S315000036400602D2ED007AF4EEC77AF1EE10FAC8BFA0
S315000036501C4603F10103C8BFB0EE677A99420244E3
S31500003660EFD10135AE4547F8044FE2D1019B09F190
S3150000367001099B449844009BF2444B45C9DC05B0C4
S31500003680BDE8F08F00240135AE4547F8044FD0D190
S31500003690ECE7BF197FF55EAFA7E7012E02D0012246
S315000036A0009283E7B6460096A6E700BF2DE9F04FE5
S315000036B0066885B0002E029153DD98461B68711E80
S315000036C099424ED11768002FC0F29F80BE4248DD56
S315000036D000EB87025168BC00002F00F09A80D0F8FA
S315000036E004B0002B3DD001250022AE469A465D4629
S315000036F008F1040C00F1080905E0B24231D0524548
S3150000370059F8045B2DD05CF8043BAB4229D1013259
S31500003710BA4205FB0EFEF0D10132B2425346CDF855
S3150000372000E020DA00EB8205BB426D6819DD971CCC
S3150000373000EB87072046404440684FF0010EA84240
S315000037400FD1541CB44205FB0EFE0EDA934210460E
S3150000375057F8045B05DD8000404440682246A842D5
S31500003760EFD03EF0FFFB4FF0010E009B002B42DD39
S315000037704FF00008F346C246C1460EFB01F3019323
S315000037800E9B4FEA8E00043B0393BEF1000F29DD2A
S315000037900025029BABEB080C03EB8806039B4FEA64
S315000037A08C0CACF1040C03EB8A070129B6EC017A08
S315000037B024DD012300240CEB0602D2ED007AF4EEA0
S315000037C0C77AF1EE10FA48BF1C4603F1010348BF61
S315000037D0B0EE677A99420244EFD10135AE4547F81B
S315000037E0044FE2D1019B09F101099B449844009BD7
S315000037F0F2444B45C9DC05B0BDE8F08F0024013525
S31500003800AE4547F8044FD0D1ECE7BF197FF55EAF60
S31500003810A7E7012E02D00122009283E7B646009662
S31500003820A6E700BF2DE9F04F076885B0002F56DDEB
S315000038308646186899467B1E834250D11368002B32
S31500003840C0F297809F424ADD0EEB830255689E00C8
S31500003850002B00F09280DEF804B000283FD001244F
S315000038600022A04609F1040C5C460EF1080A9B46AC
S3150000387005E0BA4233D082425AF8044B2FD05CF8A6
S31500003880043BA3422BD101325A4504FB08F8F0D180
S315000038900132BA425B46CDF8008022DA0EEB820492
S315000038A09842D4F804C01ADD931C0EEB830E3346FF
S315000038B066464B445B680124B34210D102F1010C09
S315000038C0BC4506FB04F40DDA904213465EF8046B21
S315000038D005DD9B004B445B686246B342EED03EF08A
S315000038E041FB0124009B002B39DD4FF0000AA34663
S315000038F0D14604FB05F30E9A01934B1E043A1B1B9B
S315000039000392029301EB0408002C1FDD0027029BA3
S3150000391003EB0B0E039B03EB8A0C012D1EF9010F23
S3150000392020DD0123002607EB080292F9001022444D
S315000039308142C8BF1E4603F10103C8BF08469D4227
S31500003940F3D10137A7424CF8046FE6D1019B09F188
S3150000395001099B449844009BA2444B45D4DC05B026
S31500003960BDE8F08F00260137A7424CF8046FD4D18A
S31500003970ECE7DB197FF566AFB1E7012F02D0012234
S3150000398000928BE73C460097AFE700BF2DE9F04F6A
S31500003990076885B0002F56DD8646186899467B1E57
S315000039A0834250D11368002BC0F297809F424ADDB4
S315000039B00EEB830255689E00002B00F09280DEF825
S315000039C004B000283FD001240022A04609F1040CCF
S315000039D05C460EF1080A9B4605E0BA4233D08242A5
S315000039E05AF8044B2FD05CF8043BA3422BD101328A
S315000039F05A4504FB08F8F0D10132BA425B46CDF8CD
S31500003A00008022DA0EEB82049842D4F804C01ADD54
S31500003A10931C0EEB830E334666464B445B680124CB
S31500003A20B34210D102F1010CBC4506FB04F40DDAD9
S31500003A30904213465EF8046B05DD9B004B445B68C1
S31500003A406246B342EED03EF08DFA0124009B002B75
S31500003A5039DD4FF0000AA346D14604FB05F30E9A62
S31500003A6001934B1E043A1B1B0392029301EB0408BD
S31500003A70002C1FDD0027029B03EB0B0E039B03EBC1
S31500003A808A0C012D1EF9010F20DD0123002607EB0C
S31500003A90080292F9001022448142B8BF1E4603F183
S31500003AA00103B8BF08469D42F3D10137A7424CF83F
S31500003AB0046FE6D1019B09F101099B449844009BE0
S31500003AC0A2444B45D4DC05B0BDE8F08F0026013793
S31500003AD0A7424CF8046FD4D1ECE7DB197FF566AF4B
S31500003AE0B1E7012F02D0012200928BE73C460097F6
S31500003AF0AFE700BF2DE9F041904690B000220446A2
S31500003B000D4615F057FD294601220746204615F0B9
S31500003B1051FD064629462046002215F04DFD337A12
S31500003B20022B13D10546007A022810D1387A0128D3
S31500003B3018D0092831D0656938F0D4FE26490246E6
S31500003B402046A847012010B0BDE8F08118466569F7
S31500003B5038F0C8FE214902462046A847012010B089
S31500003B60BDE8F081394604A815F040FD29460AA8AB
S31500003B703C68366815F03AFD2B6803AD0093324673
S31500003B8021460AAB04A80195B8F1000F1DD0FFF736
S31500003B90D1FC002010B0BDE8F081394604A815F02C
S31500003BA025FD29460AA83C68366815F01FFD2B68D6
S31500003BB003AD0093324621460AAB04A80195B8F13D
S31500003BC0000F05D0FFF72EFEE3E7FFF76FFDE0E7F6
S31500003BD0FFF7DCFEDDE700BFEC3304003034040001
S31500003BE00022FFF787BF00BF0122FFF783BF00BF98
S31500003BF070B5002204460E4615F0DCFCB0B1012279
S31500003C0005463146204615F0D5FC024670B1E368FC
S31500003C109B68986928B12B68BDE87040196836F032
S31500003C209BBC034835F034FD012070BD3EF09AF987
S31500003C30603404002DE9F0470B68064686B013B1E0
S31500003C401B68022B11D002254D494E4A7469304635
S31500003C50CDE900210293039527234B4A4B49A04700
S31500003C600125284606B0BDE8F0874B680F4613B11C
S31500003C701B68002B54D100223946304615F09AFCB9
S31500003C80804600287AD0037A0E2B0BD0022B09D05F
S31500003C903F4B7469304600933B4A33233D49A04766
S31500003CA00125DEE7D8F80430D3F800C0BCF1000FD8
S31500003CB044DD9E4601220023F2464FF000095AF8E1
S31500003CC0045F09F10109E91702FB01F405FB03444E
S31500003CD0A2FB0523E1452344F1D1002B08BF012AAD
S31500003CE02CD001220023002774695EF8045F013797
S31500003CF0E91702FB01F105FB0311A2FB052367454A
S31500003D000B44F2D10125244F2449CDE90223CDE904
S31500003D100017304635231C4A1C490495A047A0E7E6
S31500003D2000251F491F4A029344692823CDE9002133
S31500003D300395154A1549A047012592E7D6F80C9038
S31500003D403946D9F80030484601229B69984704460F
S31500003D50A0B1D8F80020D9F8083011689869324621
S31500003D60234636F0D1FB054600287FF47AAFD9F812
S31500003D700030214648465B6A984772E73EF0F2F803
S31500003D8010A4040008350400D03404007032040086
S31500003D901835040068310400004D04008035040025
S31500003DA03C3A04008C32040010B504460021034B53
S31500003DB0034A15F0D7FB204610BD00BFF13B0000BB
S31500003DC0353C00002DE9F0410B68044684B013B180
S31500003DD01B68032B10D003264F49504A65692046BD
S31500003DE0CDE9002102934E4A29234E490396A8475E
S31500003DF0012004B0BDE8F0814E680D46002E32D099
S31500003E003668012E2FD1C76800223B6838469B6969
S31500003E10984784463B68294638460022DB69654652
S31500003E2098478046002D39D0002837D0AB681B68EC
S31500003E30022B3DDD82681268022A25DD042B41DC57
S31500003E40042A49DC287898F8003083424ED13B6832
S31500003E50294638465B6A98473B68384641465B6A5E
S31500003E6098470020C5E701252F4A304B6769204651
S31500003E70CDE900322B492A23294A02960395B847F1
S31500003E80284604B0BDE8F081294B20466569244ADE
S31500003E90009328493523A8473046AAE7264B2046F3
S31500003EA065691F4A009323493223A8470120A0E7EA
S31500003EB0224B204665691A4A00931E493423A847B7
S31500003EC0304696E71E4B20466569154A0093194908
S31500003ED03623A84730468CE71A4B20466569104AB8
S31500003EE0009314493723A847012082E7666938F012
S31500003EF0F9FC054698F8000038F0F4FC124A134B1A
S31500003F00CDE90250CDE9003220463823044A104953
S31500003F10B04701206DE700BFE8350400083504000E
S31500003F20AC35040070320400004D04008C320400ED
S31500003F304836040068310400EC35040014360400E9
S31500003F4080360400B4360400F8320400343304002A
S31500003F50C03204002DE9F04F0022AFB004460D46F2
S31500003F6015F028FB294606460122204615F022FBBD
S31500003F70294602228146204615F01CFB294680462A
S31500003F800022204615F018FB96F808A00746BAF15D
S31500003F90010F10D0BAF1090F00F0EA8050466569AA
S31500003FA038F0A0FC337A0246AD492046A8470120E6
S31500003FB02FB0BDE8F08F314616A815F017FB49461D
S31500003FC01CA8356815F012FBB9F1000F00F0A380AC
S31500003FD0414622A8D9F8004015F008FBB8F1000FB9
S31500003FE000F09980394628A8D8F8006015F0FEFA46
S31500003FF0002F00F09080169B3A68022B0E9240F339
S315000040008A80042B00F38780289A934240F08380AD
S31500004010042B00F07A8100222368CDF810A00B93C0
S3150000402033680F921093179BCDF814A00A93189B30
S31500004030CDF808A00393199B0C93DDE92993069309
S315000040402B9B0D930A9B002B73DD049A0399134651
S3150000405003FB01F30C9910460A464FF000084F4641
S3150000406000FB02F20D98029C8000129004FB00F007
S3150000407001FB03F3059C14900B989B0000FB04F0D6
S31500004080119393000095159013938A0098FBF7F30C
S3150000409007FB138003990190002941DD029E109CC5
S315000040A093FBF6F106FB11330D1B069C079300FBF1
S315000040B00454059B4FF00009934603FB04F4DDF816
S315000040C000A0CDF820800AE00B9B09F101091D44F0
S315000040D0139B9A44159B1C44039B99451DD0002DA8
S315000040E0F2DB069B9D42EFDA049B002BECDD079B7F
S315000040F00F9A0E989E1A129A331902FB03034FF079
S3150000410000085A46D346002E26DB05998E4223DA4E
S31500004110019997B999B13DF025FF5A46DDF82080FF
S31500004120009B119908F101080B4400930A9B9845DE
S31500004130ACD100202FB0BDE8F08FB942EBDA0D9973
S315000041400029E8DB0C990029E5DB18465946099257
S315000041503DF05CFF0346099A029908F101080E44F6
S31500004160149993440B4404998845CCD19346ABE704
S31500004170314616A815F03AFA49461CA8356815F0D6
S3150000418035FAB9F1000FC6D0414622A8D9F8004049
S3150000419015F02CFAB8F1000FBDD0394628A8D8F88A
S315000041A0006015F023FA002FB5D0169B3A68022B53
S315000041B00D92B0DD042BAEDC289A9342ABD1042BD2
S315000041C000F0BB8001230022069305930293236827
S315000041D00E920C933368199A0F93179B0B93189BA7
S315000041E00393DDE9299307932B9B04930B9B002BE9
S315000041F09FDD06994FF000080B464F46039802FBD9
S3150000420001F103FB00F302FB03F3109113930C99E6
S31500004210059B009503FB01F304991193029B03FB95
S3150000422001F3129398FBF7F307FB138003990190B0
S3150000423000295FDD029E4FF0000993FBF6F10F9C0B
S3150000424006FB11330D1B079C089304FB0054059BCA
S31500004250CB4603FB04F4C146DDF800A00DE000BF29
S31500004260AC3104000C9B0BF1010B1D44109B9A44CE
S31500004270119B1C44039B9B453BD0002DF2DB079B07
S315000042809D42EFDA069B002BECDD089B0E9851460B
S315000042901E1A0498331984460D984FF000080CFB3B
S315000042A003031BE000287FF436AF04980028FFF6CE
S315000042B032AF002AFFF62FAF1846CDE909123DF0BE
S315000042C0A5FEDDE909120346029808F10108064435
S315000042D012981144034406988045C3D0002EF3DBA0
S315000042E005988642F0DA0198002FDBD0B842DCDB75
S315000042F011E7C846009B139908F101080B44009387
S315000043000B9B98458ED1002014E7179B0A93189BA8
S315000043100393199B04931A9B0C93DDE92993069347
S315000043202B9B05932C9B0D9323680B936368029339
S3150000433033681093B3680F9384E6179B1A9A0B930E
S31500004340189B0393199B0693DDE9299307932B9BEF
S3150000435005932C9B049323680C936368029333683C
S315000043600F93B3680E9341E710B504460021034B43
S31500004370034A15F0F7F8204610BD00BF553F000070
S31500004380C53D00002DE9F0470B68044684B013B123
S315000043901B68022B0BD05B4B204665695A4A00937B
S315000043A05A492023A847012004B0BDE8F0874E688B
S315000043B00D463EB33668012E24D1C76800223B68FD
S315000043C038469B6998473B688046324629469B6932
S315000043D0384698473B688146DB69294638460022BD
S315000043E0984798F800308246022B1CD0042B1AD02E
S315000043F0474B20466569444A009344492B23A84706
S315000044003046D1E70125434A434B67692046CDE94B
S315000044100032424921233C4A02960395B847284672
S3150000442004B0BDE8F08799F80020934211D19AF8BC
S31500004430002093421BD03A483A49CDE90232CDE9F1
S3150000444000102E23204665692F4A3449A8470120CB
S31500004450AAE735483349CDE90232CDE900102D23CC
S3150000446020466569284A2D49A84701209CE7D8F8C7
S3150000447008301E68012E0ED00125264A2B4BCDE9A9
S315000044800265CDE900322046312366691E4A23497A
S31500004490B047284688E7D9F808301D68012D0DD0A9
S315000044A01C4A234BCDE90256CDE900322046322381
S315000044B06569154A1949A847304675E7DAF808309C
S315000044C01B68012B0DD013491A4ACDE90235CDE9F7
S315000044D000212046352366690B4A1049B047284615
S315000044E062E73B68414638465B6A98473B684946FF
S315000044F038465B6A98473B68384651465B6A984738
S31500004500002051E7486F0400EC36040068310400CF
S3150000451024370400004D04008C320400703204007D
S31500004520F83204007437040064370400843704004A
S315000045309C370400B437040010B504460021034B31
S31500004540034A15F00FF8204610BD00BF21470000B2
S31500004550854300002DE9F843089C9E462668002EF8
S3150000456061DD4FF0010C04EB860654F8045FA642A9
S3150000457005FB0CFCF9D1BCF1000F3BDD0CF1FF375C
S315000045800026099B03EB8707D0F80080B8F1000FDF
S3150000459043DD0446012500EB880854F8043FA04596
S315000045A003FB05F5F9D1013DAD1BD2F8008029D4F6
S315000045B0B8F1000F51F8259031DD1446012502EBC4
S315000045C0880854F8043FA04503FB05F5F9D1013DE1
S315000045D0AD1B11D4B9F1010F5EF8254010D0012CA6
S315000045E001D0A14523D1C7F800900136B445A7F103
S315000045F00407C9DCBDE8F883B9F1010FF3D14C46D5
S315000046003C60F2E7B8F1000FC8BF4FF00109D4DCF7
S315000046103EB9DEF800403C60E7E70025C4E7002528
S31500004620D6E70124ECE700274FF0010CA8E73DF0A0
S3150000463099FC00BF2DE9F04F83B00C9C8946256894
S315000046409046002D0090019365DD2346012704EB7B
S31500004650850153F8042F994202FB07F7F9D1002F81
S3150000466041DD7E1E0021009B0D9AD3F800E0D8F8AC
S3150000467000C002EBC60603EB8E0208EB8C03BEF10C
S31500004680000F43DD0125009C54F8040FA24200FBF5
S3150000469005F5F9D1013D6D1A28D4BCF1000F59F882
S315000046A035B035DD45464FF0010A55F8040F9D42F9
S315000046B000FB0AFAF9D10AF1FF3ABAEB010A1FD454
S315000046C00198BBF1010F50F83A4004D0012C01D0FB
S315000046D0A34523D15C46E51701318F42C6E9004563
S315000046E0A6F10806CBDC03B0BDE8F08FBCF1000FE5
S315000046F0C8BF4FF0010BD5DC29B901980468EAE779
S31500004700BBF1010FE6D101240025E5E70025C2E74C
S315000047104FF0000AD1E700260127A3E73DF022FC6F
S31500004720F0B5002297B004460E4614F043FF31461A
S3150000473005460122204614F03DFF03463146204639
S3150000474000221E4614F038FF037A0446022B29463F
S3150000475004A81DD014F04AFF002D35D031460AA812
S315000047602F6814F043FF002E2ED0336810AD284674
S315000047702146039314F03AFF226804A8CDE90052BB
S315000047803946039B0AAAFFF755FF002017B0F0BD74
S3150000479014F02CFFC5B131460AA82F6814F026FF85
S315000047A096B1336810AD28462146039314F01EFFD8
S315000047B0226804A8CDE900523946039B0AAAFFF7EE
S315000047C0C9FE002017B0F0BD3DF0CCFB2DE9F04F3F
S315000047D00B6804468BB013B11B68022B0BD0824BBF
S315000047E020466569814A009381494D23A8470120E7
S315000047F00BB0BDE8F08F4868884600282FD0D0F867
S3150000480000A0BAF1010F2BD1E56800222B682846DB
S315000048109B6998472B684146064652469B6928463F
S3150000482098472B6841460022DB6907462846984789
S31500004830B36880461A68052A4EDC97F80090B9F1ED
S31500004840020F1FD0B9F1040F1CD06A4B20466569D0
S31500004850664A009366495A23A8475046C8E78246E7
S315000048600125654A654B66692046CDE900326449F3
S315000048704E235E4ACDF808A00395B04728460BB0F4
S31500004880BDE8F08F317898F80000814216D10529ED
S3150000489028D0B968D1F800B0BBF1010F2CD00125A2
S315000048A0554A584BCDE902B5CDE9003220462523BD
S315000048B066694E4A5249B047284699E7524A534BD1
S315000048C0CDE90210CDE9003220465C236569474AEE
S315000048D04B49A84701208BE7204663694C49984716
S315000048E0504685E74B4B20466569404A0093404950
S315000048F06023A84701207BE7D8F808C04968DCF8A0
S3150000490000A08A4505D02046636943499847584622
S315000049106EE7524524DCBAF1050F5FDC002AAAEBEC
S31500004920020B23DDC3EB8B0B043303EB82024FEA4E
S315000049304B0E08E000EB4300704450F8100C814227
S315000049400ED19A4212D053F8041B0129F9D0B9F1BD
S31500004950020F7868EED15844184450F8080CEEE778
S31500004960204663692D499847012041E70CF104016F
S3150000497005A84FEA8A023DF049FBBAF1000F1CDD9B
S315000049800023D7F804C005AA01E09A4515D0B9F16D
S31500004990020F0CBF5CF823005CF8330052F8041BCE
S315000049A001338142F1D01E4B204665690F4A0093C0
S315000049B00F494723A84701201AE72B6831462846A6
S315000049C05B6A98472B68394628465B6A98472B6886
S315000049D0284641465B6A9847002009E720466369F6
S315000049E00B499847584603E7486F0400CC37040044
S315000049F06831040060380400004D04008C32040065
S31500004A0070320400BC380400F83204003433040069
S31500004A10043804009C380400D438040040390400EB
S31500004A20AC39040010B504460021034B034A14F0C8
S31500004A3099FD204610BD00BFAD4B0000CD470000DC
S31500004A402DE9F04F87B09946119F129B80469F42F1
S31500004A501546109E66D0002346F8273050F82730BA
S31500004A60BA00002B059206EB870A00EB870B21DDC7
S31500004A707A1C4B461197B14617462E460D46139A99
S31500004A8029460392129A4046CDE90172CDF800906C
S31500004A9032460493FFF7D4FFDAF80040049B013452
S31500004AA0CAF80040DBF80020A242E8DC35464E4654
S31500004AB09946119F002346F8273058F8273055F8B5
S31500004AC02700059A83422A44174628D07168AB69A5
S31500004AD0326803FB01F46969B36801FB0241EC69C2
S31500004AE0F26804FB03132C6A316904FB02336A6A19
S31500004AF07E6902FB0133139A012806FB02F602FBCC
S31500004B00039909EB06040ADD01252046324649468B
S31500004B103DF07CFA3B680135AB423444F5DC07B026
S31500004B20BDE8F08F7068D8F81830926903FB00FE74
S31500004B3002FB00FC33686869D8F8144000FB03CC1C
S31500004B4004FB03E4E869B368D8F81C2000FB03CC37
S31500004B5002FB0344F0682B6AD8F8202003FB00C34D
S31500004B6002FB00423069D8F824406E6A04FB00223A
S31500004B7006FB003055F8273005EB8706139C756950
S31500004B80002B04FB021704FB009905FB04F5C6DDA8
S31500004B90002448462A4639463DF038FA336801343F
S31500004BA0A342A944F5DC07B0BDE8F08F2DE9F04734
S31500004BB00022AAB005460E4614F0FCFC3146044617
S31500004BC00022284614F0F8FC0746214604A814F0F3
S31500004BD00DFD39460AA8266814F008FD0523049D34
S31500004BE03F689D4294F80880209300F39980D5F1A0
S31500004BF0050221A80BD001460023012402E0052B63
S31500004C0000F08E8001339A4241F8044BF7D1AC0094
S31500004C1000EB820005A922460DF168093DF0F6F980
S31500004C20494601220423DDF880E025A89E4577DD6C
S31500004C3050F804C9013B41F804C9B3F1FF3F8A614A
S31500004C400CFB02F2F2D105230A9A10939A4267DC12
S31500004C50D2F1050111A80BD0844600234FF0010EB6
S31500004C6001E0052B5CD0013399424CF804EBF8D1F6
S31500004C70920000EB81000BA93DF0C8F924AA10466A
S31500004C8001210423DDF840A00DF1540C9A4547DDBF
S31500004C905CF804E9013B40F804E9B3F1FF3F8161A8
S31500004CA00EFB01F1F2D14FF0040A59F8041952F83B
S31500004CB0043999421AD1BAF1010AF6D2002D2DDD36
S31500004CC0012505AB1C4453F8042B9C4202FB05F559
S31500004CD0F9D1404636F068FB314605FB00F238460E
S31500004CE03DF094F900202AB0BDE8F0870024404644
S31500004CF0CDE91044CDE91244149436F055FB10ADBD
S31500004D00CDE902A03B4616A83146CDE9005420AABB
S31500004D10FFF796FE00202AB0BDE8F0870125D8E708
S31500004D203DF020F9002230B5D1E9043425681A7126
S31500004D301D600B68044683B00BB11B686BB94B68EA
S31500004D400BB11B68F3B9E36898680368DB6A984798
S31500004D5085420CDA002003B030BD104B4469104A7E
S31500004D60009310493323A047012003B030BD0E4BFA
S31500004D70204665690A4A00930A493923A847012053
S31500004D8003B030BD094B20466569054A00930549C5
S31500004D903423A847012003B030BD00BF103A0400F9
S31500004DA0DC39040068310400403A0400283A040063
S31500004DB010B50C6923794BB9C368216898680368F4
S31500004DC05B69984708B90123237110BD002010BD07
S31500004DD0836B0BB10821184710B53DF0C3F800BF2F
S31500004DE010B50446034B044A044914F0BBFB2046A5
S31500004DF010BD00BFB14D0000254D0000D14D000093
S31500004E002DE9F0410B68044684B013B11B68012BF1
S31500004E1010D001252B492C4A66692046CDE9002190
S31500004E2002932A4A1D232A490395B047284604B00F
S31500004E30BDE8F0814E680D46F6B13668012E1BD1ED
S31500004E40C76800223B6838469B699847804620B36E
S31500004E503B68294600223846DB699847054630B349
S31500004E603B68414638465B6A98473B683846294660
S31500004E705B6A98470020DAE70125124A154B6769F5
S31500004E802046CDE9003212491E23104A02960395A8
S31500004E90B847284604B0BDE8F0810F4B2046656947
S31500004EA00A4A00930D492423A8473046BFE70C4B16
S31500004EB020466569054A009308492723A8473046D6
S31500004EC0B5E700BF004D0400083504007C3A040035
S31500004ED0703204008C320400803104006831040012
S31500004EE000360400F0B500228DB005460E4614F0DB
S31500004EF061FB002204463146284614F05DFB054658
S31500004F002146684614F072FB294606A814F06EFB8B
S31500004F10009A069B9A4240F08E81002A40F38380D5
S31500004F2001A90E46002307A856F804CB50F8047BC7
S31500004F30BC4540F0808101339A42F5D1012301A896
S31500004F4000EB820251F8040B8A4200FB03F3F9D10D
S31500004F50207A421E0F2A09D8DFE802F01223080839
S31500004F6008084E08340808080808084137F0BAFC53
S31500004F70227A0146B14834F08BFB00200DB0F0BD1B
S31500004F80287A2268441E2968082C42D8DFE814F0E3
S31500004F90470139014100410041004100290141001A
S31500004FA01901287A2268441E2968082C31D8DFE8BE
S31500004FB014F0FA00EE003000300030003000E2005D
S31500004FC03000D600287A2268441E2968082C20D88A
S31500004FD0DFE804F0B4A71F1F1F1F9A1F8D00287A51
S31500004FE02268441E2968082C13D8DFE804F072668C
S31500004FF0121212125A124E00287A2268441E29688A
S31500005000082C06D8DFE804F03227050505051C053F
S31500005010110037F067FC2A7A0146894834F038FBDC
S3150000502000200DB0F0BD012392E702EB43039A4244
S31500005030A3D032F9020B934201F8010BF9D19CE798
S3150000504002EB43039A4298D032F9020B934221F8BD
S31500005050020BF9D191E702EB43039A428DD032F964
S31500005060020B934241F8040BF9D186E702EB4303A6
S315000050709A4282D032F9020B07EE900AF8EEE77AEE
S315000050809342E1EC017AF5D177E702EB83039A428A
S315000050903FF473AF52F8040B934201F8010BF9D1B8
S315000050A06BE702EB83039A423FF467AF52F8040BB7
S315000050B0934221F8020BF9D15FE702EB83039A4290
S315000050C03FF45BAF52F8040B934241F8040BF9D15D
S315000050D053E702EB83039A423FF44FAFF2EC017AB7
S315000050E0F8EE677A9342E1EC017AF7D145E7D018FA
S315000050F082423FF442AF013A0B4412F9010F01F824
S31500005100010B9942F9D138E713449A423FF435AF7F
S31500005110013A013B12F9010F9A4221F8020BF9D12B
S315000051202BE713449A423FF428AF013A013B12F9A8
S31500005130010F9A4241F8040BF9D11EE713449A4233
S315000051403FF41BAF013A013B12F9010F07EE900A3B
S31500005150F8EEE77A9342E1EC017AF5D10DE702EB3E
S3150000516083039A423FF409AF52F8040B934201F8C5
S31500005170010BF9D101E702EB83039A423FF4FDAE3E
S3150000518052F8040B934221F8020BF9D1F5E602EB33
S3150000519083039A423FF4F1AE52F8040B934241F86E
S315000051A0040BF9D1E9E602EB83039A423FF4E5AE3C
S315000051B0F2EC017AF8EEE77A9342E1EC017AF7D164
S315000051C0DBE602EB83039A423FF4D7AEF2EC017AB8
S315000051D0FDEEE77A17EE900A934201F8010BF5D13E
S315000051E0CBE602EB83039A423FF4C7AEF2EC017AB8
S315000051F0FDEEE77A17EE900A934221F8020BF5D1FD
S31500005200BBE602EB83039A423FF4B7AEF2EC017AB7
S31500005210FDEEE77A9342E1EC017AF7D1ADE602EBD7
S3150000522083039A423FF4A9AE52F8040B934241F825
S31500005230040BF9D1A1E63CF095FE00BFD03A04007C
S31500005240AC3A040010B504460021034B034A14F09F
S3150000525089F9204610BD00BFE54E0000014E000052
S315000052602DE9F047C6680446336884B0002230460C
S315000052709B690D469847002840D0336807460022B0
S3150000528029463046DB6998478046002856D02B6869
S315000052901BB31B68012B20D16D68002D3BD0D5F8C0
S315000052A00090B9F1010F37D197F800A0BAF1010FBC
S315000052B066D10578012D4ED18369BA69934274D0BF
S315000052C057485849CDE90232CDE900102C23204633
S315000052D06669554A5549B0470CE001255449554A77
S315000052E066692046CDE9002102934F4A28234F499B
S315000052F00395B047284604B0BDE8F0874E4B656974
S3150000530020460093484A24234C49A84701252846AD
S3150000531004B0BDE8F087A9460125454A484B6669B1
S315000053202046CDE90032414929233F4ACDF808906D
S315000053300395B047284604B0BDE8F087414B656940
S3150000534020460093384A27233C49A847012528468A
S3150000535004B0BDE8F0872846666937F0C3FA05460B
S31500005360387837F0BFFA384A384BCDE90250CDE9E4
S31500005370003220462B232C4A35495546B047B9E71B
S315000053805046666937F0AEFA0546484637F0AAFA3F
S31500005390304A2D4BCDE90250CDE9003220462A2372
S315000053A0214A2B494D46B047A4E78168BA68D1F82F
S315000053B000E013689E450CD02749284ACDE902E350
S315000053C0CDE9002120462D236669174A1749B047C3
S315000053D090E7BEF1000F17DD002301E09E4513D0D4
S315000053E051F8040F52F804CF01336045F6D01C4A39
S315000053F01C4BCDE9020CCDE9003220462F2366690D
S31500005400094A0A49B04775E73368394630465B6A48
S3150000541098473368414630465B6A9847002569E7F6
S31500005420243B0400343B0400F43A040070320400C8
S31500005430004D040008350400803104006831040082
S315000054408C3204000036040034330400F8320400C1
S31500005450C0320400DC450400443B0400583B040011
S315000054606C3B0400843B0400F0B500228DB0054679
S315000054700E4614F09FF8314604460022284614F0E2
S315000054809BF821460546684614F0B0F8002C3CD03F
S31500005490294606A8246814F0A9F8B5B3009B069A15
S315000054A02968934231D1002B26DD01A80646002249
S315000054B007AD56F804CB55F8047BBC4525D101321F
S315000054C09342F6D1012201AD05EB830350F8045B4C
S315000054D0984205FB02F2F9D1002A0ADD234604EBC5
S315000054E08202F3EC017AFAFE677A9342E1EC017AE2
S315000054F0F7D100200DB0F0BDD4ED007A0020FAFE01
