S024000048656C6C6F5F576F726C645F54464C4D5F564F4943455F52413645312E73726563A0
S3150000000070270020853C0200C53A0200813C0200B0
S31500000010813C0200813C0200813C0200813C0200DE
S31500000020000000000000000000000000813C02000B
S31500000030813C020000000000813C0200813C02007D
S31500000040A9360200213602002D3702006D37020064
S31500000050A9360200213602002D3702006D37020054
S31500000060000000000000000000000000000000008A
S31500000070000000000000000000000000000000007A
S31500000080000000000000000000000000000000006A
S31500000090000000000000000000000000000000005A
S315000000A0000000000000000000000000000000004A
S315000000B0000000000000000000000000000000003A
S315000000C0000000000000000000000000000000002A
S315000000D0000000000000000000000000000000001A
S315000000E0000000000000000000000000000000000A
S315000000F000000000000000000000000000000000FA
S3150000010000000000000000000000000000000000E9
S3150000011000000000000000000000000000000000D9
S3150000012000000000000000000000000000000000C9
S3150000013000000000000000000000000000000000B9
S3150000014000000000000000000000000000000000A9
S315000001500000000000000000000000000000000099
S315000001600000000000000000000000000000000089
S315000001700000000000000000000000000000000079
S315000001800000000000000000000000000000000069
S315000001900000000000000000000000000000000059
S315000001A00000000000000000000000000000000049
S315000001B00000000000000000000000000000000039
S315000001C0FFFFFFFFFFFFFFFFFFFFFFFFFFFFFFFF39
S315000001D0FFFFFFFFFFFFFFFFFFFFFFFFFFFFFFFF29
S315000001E0FFFFFFFFFFFFFFFFFFFFFFFFFFFFFFFF19
S315000001F0FFFFFFFFFFFFFFFFFFFFFFFFFFFFFFFF09
S3150000020010B5054C237833B9044B13B1044800E00C
S3150000021000BF0123237010BDB000002000000000C5
S31500000220141F030008B5034B1BB10349034800E044
S3150000023000BF08BD00000000B4000020141F03002A
S3150000024008B508B928F0FAF90268821A11880A294D
S315000002500DD9538903B1C3580429DBB209D9928851
S315000002604AB18056C0B2984238BF184608BD00232E
S31500000270F2E70020F6E71046F4E710B5012480F80F
S3150000028028402824B2FBF4F20C240023C16001EBC1
S315000002900211016101EB8201416101EB82014260C1
S315000002A004FB0212836081614262184610BD7047EA
S315000002B0F7B5D0E90265089F04680097A468A047CF
S315000002C028B9099B05EB06156B6003B0F0BD01204C
S315000002D0FBE78068704710B5044623F0B1FD204661
S315000002E010BDFFFF70B504460846D4E901158D42DE
S315000002F005DB0A460B4921F09FFD012070BDE06831
S315000003002E0100EB051182518B60049B0135CB60F9
S315000003104FF0FF334B6001230020A56084F828309E
S31500000320ECE700BFE8950200F0B504460B46012550
S315000003300026954212DAD4E9007C6745B8BFC4E9C5
S3150000034000C705F10105B8BFD3E9006704F104044D
S31500000350BCBFC3E9007601260433EAE7002EE4D1E8
S31500000360F0BDFFFF014B0360704700BFD49602004B
S3150000037010B54C68C16801EB04118868984205DC29
S31500000380C8689042B4BF0020012010BD0020FCE7E1
S3150000039070B5054689B9046A0C200C26A96900FBCC
S315000003A0041421462846FFF7E3FF50B9A468611CF0
S315000003B009D0A96906FB0414F3E78C68601CEBD12D
S315000003C00024204670BD0446FBE72DE9F04F90F867
S315000003D02830044685B0002B00F0AE808568002DDD
S315000003E000F0AA80D0E9047600231A4680F8283067
S315000003F0D4F808C04FEA820E9C4507EB820006EB54
S3150000040082011EDDD4F80CC019010CEB0310D0F8E4
S3150000041004805CF801C0B8F1FF3F616A08D1013D74
S3150000042047F825C046F8253041F823800133DFE739
S3150000043047F80EC046F80E304068013241F82300F6
S31500000440F4E7ACEB0202FFF76FFF01230022C4E9D9
S3150000045007324FF0FF33A6690127B246B3606369DE
S31500000460D4F80C8001931B68D4F824B008EB031170
S3150000047049687360013108BF4BF823205BF82330CD
S315000004803360A368BB4257DD019B53F8279008EB06
S3150000049009135D684FEA0912691C20D10020D3EDCB
S315000004A0037A054658F8022002929A68014603909C
S315000004B017EE903A2046FFF76BFF039949B14B6858
S315000004C009684FEA031C58F80CC08C446545B8BF50
S315000004D0654620B10168029B491B8B42E6DC0C2273
S315000004E04BF82950E36902FB03F175507218591C49
S315000004F0C2F80490E161DAF80010A94205DD9246DF
S31500000500216A916023620137BBE751468868B0F1E2
S31500000510FF3F04D18B609060F5E77146F6E74FF038
S315000005200C0C0CFB00FC06EB0C0E56F80CC0AC4594
S31500000530F3DD90608B60E6E705B0BDE8F08F70B53F
S315000005400446FFF742FFA068A8B10C220020A56967
S31500000550236A02FB035373B15968E66809017158AF
S315000005601E689B683144884238BF0846591C02D031
S3150000057002FB0353EFE770BD2DE9F04F9FB0044631
S315000005800025FFF722FF5C4FA668AE4223DD092D4A
S3150000059015DC05F1300149B2E368280103EB0512C9
S315000005A0D668029692680192626A52F825200092F5
S315000005B01B582A46384620F039F90135E4E7232D41
S315000005C002DC05F15701E6E73D2D02DC05F11D01D0
S315000005D0E1E72A21E0E70023502798469E4211DDF5
S315000005E0E168626A1D0101EB031052F823204959A4
S315000005F001330A449742B8BF1746C2689045B8BF50
S315000006009046EBE7002509A900220B462E20013271
S31500000610502A01F8010BFAD1A16805920691002132
S315000006208C46069888424DDDE6684FEA011E06EBC9
S315000006300119D9F80800A84242DCD9F80C00A842F2
S315000006403EDB606A50F82190B9F1FF3F38D056F88A
S315000006500E60059AB44402FB09F0B14402FB09F9A5
S3150000066090FBF7F099FBF7F601F11D0E01F1570922
S3150000067001F1300A07964FFA8EFE1E184FFA89F9D5
S315000006804FFA8AFA079A90421ADA96F900B0BBF145
S315000006902E0F11D1092905DCD34686F800B00130AA
S315000006A00136EFE7232901DCCB46F6E73D29D4BF27
S315000006B0F3464FF02A0BF0E74FF021023270EEE7D7
S315000006C00131AEE700220D498DF874200C4A0D4821
S315000006D0092DD8BF11460CF2FF32002AB8BF0CF222
S315000006E0FE72921200922A46013520F09FF8A84524
S315000006F089DA1FB0BDE8F08F05960200B6FA02004F
S315000007004C05030040960200F8B5144605460F4610
S315000007101E46FFF75AFE002C02DBAB68A34207DC3D
S3150000072022463846AB68054921F086FB0120F8BD14
S315000007306B6A002053F824303360F8E74F960200C6
S31500000740836B10B50BB927F079FF1C21BDE810406B
S315000007501847836B10B50BB927F070FF0221BDE86F
S3150000076010401847F0B50F6906460C4691B00FB910
S3150000077027F064FF244B1A680DF081FE234B0546D3
S31500000780214630461A680DF07CFE0446287A012878
S315000007900AD009281CD0746922F05EFC1C49024666
S315000007A03046A047012011E0294604A80DF085FE39
S315000007B021460AA82D680DF080FE002CD8D02946C7
S315000007C023680AAA04A800F055F9002011B0F0BD6C
S315000007D0294604A897F9016097F900700DF06DFE9F
S315000007E02B680AAD2146284603930DF066FE039B4F
S315000007F0002CBDD022683946CDE90052304604AA05
S3150000080000F060F9E1E700BF7C98020080980200E2
S31500000810F8960200F0B50F6906460C468FB00FB980
S3150000082027F00CFF204B1A680DF029FE1F4B0546DA
S31500000830214630461A680DF024FE0446287A01281F
S315000008400AD009281CD0746922F006FC1849024611
S315000008503046A047012011E0294602A80DF02DFEE2
S31500000860214608A82D680DF028FE002CD8D0294670
S31500000870236808AA02A800F0DFF800200FB0F0BD38
S31500000880294602A80DF019FE214608A80DF015FE0E
S315000008902B68002CC4D022683846009202A908AA08
S315000008A000F048F8E9E700BF7C9802008098020053
S315000008B0F896020010B50446034B044A04490DF0AD
S315000008C0B7FD204610BD00BF15080000FD0A000058
S315000008D04107000010B50446034B044A04490DF0D5
S315000008E0A7FD204610BD00BF65070000E10B000014
S315000008F05307000038B504680B689C4201D027F006
S315000009009DFE012304395A1E944207DD50F8232028
S31500000910013351F823509542F5D0F0E70346002203
S315000009200120944204DD53F8041F01324843F8E7DE
S3150000093038BDFFFF2DE9F74F0446084611461D4610
S31500000940FFF7D8FF00216FF000468C464FF0010EEE
S31500000950354F814265DAE3686A56D4F810A0D21A98
S31500000960D4E9053828EAE879B8F1000F02FA09F265
S31500000970CCBF4FF00008C8F10008934231D103F113
S315000009800049D9F1000B4BEB090B82FB0323002A2C
S3150000099073F10009ACBF4FF08049B946BBF1000FB7
S315000009A022D112EB090243EBE973002ACDE90023B9
S315000009B073F1000306DA009B9B190093019B43EB3E
S315000009C00C030193009BDA0F019B42EA4303B8F143
S315000009D01F0F0CDD40F26711144B154A154823F022
S315000009E03DF84FF0000BD0E76FF00043EFE70EFA4B
S315000009F008F2013A02EA0309521002EBD37243FAF3
S31500000A0008F39145C8BF01339A4463680C9A9A4526
S31500000A10B8BF9A46A3685345A8BF534653540131FD
S31500000A2097E703B0BDE8F08F010000C024970200ED
S31500000A30339702008D97020038B50D461C461146C5
S31500000A40FFF758FF2346294600229FED097A824286
S31500000A500CDAF1EC017AF5EE407AF1EE10FA48BFC5
S31500000A60F0EE477A0132E3EC017AF0E738BD00BFD9
S31500000A700000000038B50D461C461146FFF73AFF48
S31500000A80234629460022B1EE087ADFED0D6A82423E
S31500000A9014DAF1EC017AF4EEC77AF1EE10FA0ADC18
S31500000AA0F5EE407AF1EE10FA48BFF0EE667AE3EC26
S31500000AB0017A0132EBE7F1EE087AF8E738BD00BFBC
S31500000AC0000000002DE9F04107460E46DDE9061557
S31500000AD010469846FFF70EFF002282420BDA18F9FD
S31500000AE00240B44205DCBC42B8BF3C46AC540132BD
S31500000AF0F3E73446FAE7BDE8F081FFFF2DE9F74357
S31500000B000F6980460D460FB927F098FDC46800228C
S31500000B10236820469B699847064660B92B4B00938D
S31500000B207B23D8F814404046294A2A49A047012089
S31500000B3003B0BDE8F0832368294600222046DB691E
S31500000B409847054628B9244B0093D8F814407E23CD
S31500000B50E9E73378092B2CD196ED037AD0ED037AA9
S31500000B60C7EE277A17EE900A26F072F807F11809F1
S31500000B7007F1140841EC100B4946404620F0D0FD21
S31500000B8095ED037ADFED156AC6EE877AF8FE677A89
S31500000B90FDEEE77A17EE903A6FF07F012A6913446B
S31500000BA08B42ACBF7B6079607F23BB603369C7E94A
S31500000BB003322368314620465B6A984723682046FD
S31500000BC029465B6A98470020B2E700BF6898020092
S31500000BD01698020051980200A59C02000000000031
S31500000BE02DE9F7430F6905460FB927F027FDC668BB
S31500000BF00022336830469B699847044658B91A4B19
S31500000C00284600936C699123184A1949A047012088
S31500000C1003B0BDE8F0830378092B1DD1B1EE087A45
S31500000C20D0ED037AC7EE277A056917EE900A26F00B
S31500000C300FF841EC100B24F085F859EC108B284680
S31500000C4025F0F4FF42464B4625F0A4FE26F0F2FAC4
S31500000C5000F3070038707D703368304621465B6AC2
S31500000C6098470020D4E700BF689802001698020053
S31500000C705198020008B5D0E90B239A4201DD27F00E
S31500000C80DDFC4268802AFADC83687F33FF2BF6D8C6
S31500000C907F32F4DB08BD836B10B50BB927F0CEFCB1
S31500000CA03C21BDE810401847002908B501DA27F0B5
S31500000CB0C5FC03688B42FADD00EB8100406808BD85
S31500000CC0034610B5002204680120944204DD53F85F
S31500000CD0041F01324843F8E710BDF8B515461268FF
S31500000CE004469142016001DA27F0A8FC061D37464A
S31500000CF00020A1EB020C604505D08842F4DA46F8E4
S31500000D00043B0130F7E79200291D07EB800027F02E
S31500000D10E9FC2046F8BD70B50468049D042C01D09A
S31500000D2027F08CFC4468A4B90029F9D18468ACB9D1
S31500000D30002AF5D1C668B6B9002BF1D10069B8B959
S31500000D40002DEDD101FB042206FB023300FB03500C
S31500000D5070BD0029E4DB8C42E8DCE1E7002ADFDB3A
S31500000D609442E7DCDCE7002BDADB9E42E6DCD7E7E1
S31500000D70002DD5DBA842E5DCD2E770B50D46164658
S31500000D80FFF79EFF04462846FFF79AFF05463046C2
S31500000D90FFF796FFAC4201D027F050FC8442FBD10E
S31500000DA070BDFFFF884238B503462BD100F10040E5
S31500000DB04442444183FB0101002871F100031E4BAC
S31500000DC0A8BF4FF08043FCB9C01841EBE37100287F
S31500000DD071F1000304460D4606DA6FF00043C418AD
S31500000DE04FF0000343EB0505E00F40EA4501002AFA
S31500000DF0C2F100040BDD4FF4B371104B104A1148D9
S31500000E0022F02CFE0024D5E76FF00041EFE71F32F9
S31500000E1004DA40F267110C4B094AF0E70123A340BC
S31500000E20013B03EA01005B1003EBD17321419842B9
S31500000E30D4BF0846481C38BD010000C08498020093
S31500000E40339702008D9702002497020070B514466E
S31500000E509369956852682944104401FA03F598404D
S31500000E60D4E90712FFF79EFFD4E909120646284681
S31500000E70FFF798FFD4E904123044FFF793FFE368C5
S31500000E801844E36A9842B8BF1846236B9842A8BF35
S31500000E90184640B270BD70B50029049C02DB056897
S31500000EA08D4201DC27F0CAFB002AFBDB4568954230
S31500000EB0F8DD002BF6DB85689D42F3DD002CF1DBC7
S31500000EC0C568A542EEDDD0E904656A4306FB01214B
S31500000ED08269C06902FB031100FB041070BDFFFFAD
S31500000EE02DE9F84F0446904608461946D4E90B23E7
S31500000EF09A420A9E0C9D01DD27F0A0FB0B9AFFF794
S31500000F003CFF61681E4B81469942F5DB47F6FE724F
S31500000F109142A368F0DC13444FF6FC729342EBD87F
S31500000F200027B94529DD36F917A0A36862689A44F7
S31500000F3038F91730A06913440AFA00FAD4E90712FF
S31500000F4003FA00F0FFF72EFFD4E909128346504654
S31500000F50FFF728FFD4E904125844FFF723FFE3689C
S31500000F600344E06A8342B8BF0346206B8342A8BFAE
S31500000F70034625F817300137D3E7BDE8F88F00BFE1
S31500000F800280FFFF2DE9F0410B6804680E469C4283
S31500000F90B8BF1C4604238EB01370214601231546A4
S31500000FA0024602A8FFF799FE01233246214608A809
S31500000FB0FFF793FE029A089B9A420AD1920009A96A
S31500000FC003A827F081FB20B901232B700EB0BDE8E2
S31500000FD0F081013C2146002916DB02A80191FFF7AA
S31500000FE063FE0199064608A8FFF75EFE8642019950
S31500000FF001D10139EFE702A80191FFF755FE01285B
S31500001000019907D102232B702B789A1E012A0CD93D
S3150000101027F014FB08A8FFF747FE012801D1032398
S31500001020F1E704232B700120D0E7032B4FF00103D7
S31500001030C5E91433C5E9163307BF08AF02AE02AFE0
S3150000104008AE2B66002CEEDB21463846FFF72CFE59
S31500001050214680463046FFF727FE804508D12146C7
S315000010603046FFF721FE2B6E013C58432866E9E720
S3150000107021463846FFF718FE01280AD12146304698
S31500001080FFF712FEEB6D013C00FB03F0E865EFD2C3
S31500001090C9E721463846FFF707FE21468046304617
S315000010A0FFF702FE80450AD121463846FFF7FCFDD0
S315000010B0AB6D013C00FB03F0A865EAD2B3E721461D
S315000010C03046FFF7F1FD01280AD121463846FFF7E1
S315000010D0EBFD6B6D013C00FB03F06865EFD2A2E708
S315000010E021463846FFF7E0FD214680463046FFF7A9
S315000010F0DBFD804595D121463046FFF7D5FD2B6DAA
S31500001100013C00FB03F02865EAD28CE710B50446E3
S31500001110034B044A04490DF08BF9204610BD00BF6D
S315000011200917000019190000970C0000F8B50646CB
S315000011300324012701F10C0521463046FFF7B4FDD3
S3150000114045F8040921466F613046FFF7ADFD013CC5
S3150000115000FB07F7F0D2F8BD2DE9F0430C461E461A
S3150000116015468DB00AB927F069FA002BFBD0024666
S31500001170012304216846FFF7B0FD2246002401231F
S31500001180042106A8FFF7A9FD29466846FFF7CEFF0A
S31500001190314606A8FFF7CAFF4FF01008A1462146C0
S315000011A06846FFF781FD2146074606A8FFF77CFD46
S315000011B0874205D0012F0BD145F8089045F8240049
S315000011C00134042C08F10408E9D10DB0BDE8F08320
S315000011D00128C8D146F8089046F82470F0E72DE9B2
S315000011E0F04F9BB00DF12808029281464246084610
S315000011F0194612ABFFF7B0FF01230421259A04A874
S31500001200FFF76BFD0024049B002B01DC27F016FA88
S31500001210059B9C4241DA0025049B012BF6DD069BCB
S315000012209D4238DA0026049B022BEFDD079B9E4287
S315000012302FDA0027049B032BE8DD089B9F4226DA62
S3150000124033462A46214600974046FFF724FE029B76
S315000012502A4613F900A021463346009712A8FFF745
S315000012601AFE249B2A4613F900B0214633460097FE
S3150000127004A8FFF750FD4A46289B0390594650465E
S315000012809847269B01371A46039BD054D2E701366E
S31500001290C9E70135C0E70134B5E71BB0BDE8F08FFB
S315000012A02DE9F0452DED048B044699B0084692468B
S315000012B0194608AA10AB269FFFF74EFF012304210B
S315000012C0259A02A8FFF709FDD4ED0D8A94ED0E9A32
S315000012D00024029B002B01DC27F0B0F9039B9C4203
S315000012E050DA0025029B012BF6DD049B9D4247DA6E
S315000012F04FF00008029B022BEEDD059B98453DDA78
S315000013000026029B032BE7DD069B9E4233DA43460B
S315000013102A462146009608A8FFF7BDFD0AEB800085
S3150000132090ED008A43462A462146009610A8FFF70C
S31500001330B2FD249B2A4603EB8000D0ED007A38EEFE
S31500001340278A00964346214602A8FFF7E4FCB4EE3E
S31500001350688AF1EE10FA48BFB0EE688AB4EE489A91
S31500001360F1EE10FA48BFB0EE498A07EB800080ED37
S31500001370008A0136C5E708F10108BBE70135B1E788
S315000013800134A6E719B0BDEC048BBDE8F0852DE964
S31500001390F0412DED028B596B9A6B1C78B0B02391FE
S315000013A0DDE938763A9D394624920DF1400804A8C5
S315000013B00CB30DF082F80FB927F040F931460AA8B0
S315000013C03C680DF07AF8002EF6D02946404636687D
S315000013D00DF073F8002DEFD02B682246CDE901837E
S315000013E000960AAB04A916A8FFF75AFF30B0BDEC69
S315000013F0028BBDE8F0810DF060F8002FDCD031469D
S315000014000AA83F680DF059F8002ED5D02946404667
S3150000141036680DF052F8002DCED02D6842460AA946
S3150000142004A8DDED238A9DED248AFFF7A6FC2A4653
S3150000143031463D4623469842D8DDF5EC017AB1ECBB
S31500001440017A77EE877AF4EE678AF1EE10FA78FE83
S31500001450A77AB4EE678AF1EE10FA48BFF0EE487A42
S315000014600133E2EC017AE6E72DE9F04F9BB00DF18E
S315000014702809039204464A460846194612ABFFF766
S315000014806BFE01230421259A04A8FFF726FC0026FB
S31500001490049B002B01DC27F0D1F8059B9E4264DA01
S315000014A00027049B012BF6DD069B9F425BDA4FF07B
S315000014B0000A049A022AEEDD079A924551DA4FF0A5
S315000014C00008049A032AE6DD089A904546DA534650
S315000014D03A463146CDF8008048466568FFF7DBFCA2
S315000014E0039B314633F9102053461544CDF800804E
S315000014F03A4612A8D4F808B0FFF7CDFC249AA3699F
S3150000150032F9102005FA03F09344D4E907120BFAD6
S3150000151003FBFFF747FCD4E9091205465846FFF7D7
S3150000152041FCD4E904122844FFF73CFCE568534625
S315000015300544E06ACDF800808542B8BF0546206BB9
S315000015403A468542A8BF0546314604A8FFF7E3FBA5
S31500001550269B08F1010823F81050B2E70AF1010AA8
S31500001560A7E701379DE7013692E71BB0BDE8F08F8C
S315000015702DE9F0415A6AB2B01E929A6ADDE93854F2
S3150000158019925A6929461F925A680CA82092DA6A5B
S315000015903A9E1A929A6921929A6822921A6B1B9223
S315000015A0DA691C921A6A1D92D3E90332CDE9233215
S315000015B00CF083FF214612A80CF07FFF18AA12A98F
S315000015C00CA8FFF7DFFC0746307A072852D0092817
S315000015D040F08B80294606A81FB30CF06EFF0DB9AC
S315000015E027F02CF821460CA82D680CF066FF002C7D
S315000015F0F6D0314612A824680CF05FFF3F4B2A460E
S3150000160004933F4B06A90393336818A8029312ABC1
S31500001610CDE900430CABFFF7E2FD002032B0BDE898
S31500001620F0810CF04AFF002DDAD021460CA8D5F83F
S3150000163000800CF042FF002CD2D0314612A824685C
S315000016400CF03BFF18A83668FFF714FB12AA0CA98A
S3150000165006A8FFF792FB054618A8FFF70BFBBD424D
S31500001660DBDDE15718F9070018AAFFF7EFFBF05585
S315000016700137F4E7294606A8DFB10CF01EFF002D5E
S31500001680AED021460CA82D680CF017FF002CA7D071
S31500001690314612A824680CF010FF33682A460293DC
S315000016A012ABCDE9004306A90CAB18A8FFF7DCFE88
S315000016B0B3E70CF002FF002D92D021460CA82D684E
S315000016C00CF0FBFE002C8BD0314612A824680CF0DF
S315000016D0F4FE33682A46029312ABCDE9004306A90D
S315000016E00CAB18A8FFF7FCFB97E721F0B5FC327AA4
S315000016F0014604481FF09AF801208FE74D0E0000BE
S31500001700750C0000929802002DE9F043D1E90439E6
S3150000171006460C4687B00BB926F090FF1C4A059387
S3150000172012680CF0ACFE1B4A21461268074630468A
S315000017300CF0A5FE184A80462146304612680CF089
S31500001740A0FE0546007A059B01280BD130464A4685
S315000017502146CDE901850097FFF719FE002007B065
S31500001760BDE8F083092801D0072808D14A4621465A
S315000017703046CDE901850097FFF7FAFEEFE721F045
S315000017806BFC2A7A014605481FF050F80120E6E76F
S31500001790089902000C990200109902009298020022
S315000017A02DE9F04F2DED068B834681B00D46DDE920
S315000017B010A4194610461E46174620F029FB9AF833
S315000017C0003080F00100092B207001D0072B7DD15D
S315000017D097ED03AA96ED038AB4EEC8AA072B0CBFB1
S315000017E04FF00F084FF01408F1EE10FA3A6954BFA3
S315000017F01AEE100A18EE100A5242A26232695242DA
S31500001800E262DAF81020C4F82480226325F020FA78
S3150000181002460B4625F0BEF806460F4618EE100A9D
S3150000182025F016FA32463B4625F094FB41EC190B9F
S31500001830012000FA08F025F0F9F98046DAF80C00E4
S31500001840894625F005FA02460B464046494625F0EC
S3150000185057FA02460B463046394625F07BFB41ECEB
S31500001860180B1AEE100A25F0F3F932463B4625F01E
S3150000187071FB04F1040904F1140841EC100B49460C
S3150000188040461FF0ABFFB0EE490AF0EE690A04F1DC
S31500001890080104F118001FF0A1FF04F1200104F172
S315000018A01C00B0EE480AF0EE680A1FF097FF524699
S315000018B0584604F110032978109304F10C0301B083
S315000018C0BDEC068BBDE8F04F20F004B9012B0CD11E
S315000018D02B78012B03D1002363630C4B04E0032B0D
S315000018E009D1002363630A4BA363002001B0BDEC5A
S315000018F0068BBDE8F08F022B04D1064B63634FF0D5
S315000019007E53F1E76FF40003E6E700BFFFFF7F7F3A
S315000019100000C040000080BF0B692DE9F743054673
S315000019200E460BB926F08AFE4B69002BFAD0C46826
S315000019300022236820469B699847814660B9214B5F
S31500001940009356236C6928461F4A2049A047012563
S31500001950284603B0BDE8F0832368012231462046BD
S315000019609B699847804620B9194B00936C695923A7
S31500001970E9E72368002231462046DB699847074697
S3150000198020B9144B00936C695C23DCE733694A4643
S31500001990CDE90003716928464346FFF701FF054676
S315000019A00028D5D12368494620465B6A98472368B4
S315000019B0414620465B6A98472368394620465B6A5B
S315000019C09847C5E7E1980200AE98020051980200D8
S315000019D0F3980200A59C02002DE9F04F2DED068B31
S315000019E00B6805468A4687B023B1D3F800B0BBF131
S315000019F0010F08DC974B6C69009332232846964A00
S31500001A009649A0477EE04B6813B11C68012C14D0A0
S31500001A106E6903B11B680124CDE90234904B284658
S31500001A200193904B8C4A00938F493323B04720464D
S31500001A3007B0BDEC068BBDE8F08FC76800223B6897
S31500001A4038469B699847804640B9884B6E69009333
S31500001A5038232846804A8149B047E8E73B68002298
S31500001A6051463846DB699847814620B9804B6E69F6
S31500001A7000933B23EDE7007898F80030834213D0BB
S31500001A806F6921F0E9FA064698F8000021F0E4FAB9
S31500001A90784BCDE902600193774B284600936E4A56
S31500001AA03E237649B847C2E73B6822465146384648
S31500001AB09B699847064620B9714B6C690093412390
S31500001AC09CE70146404620F0A3F920B96D4B6C69AE
S31500001AD00093422392E798F800003378834213D0AC
S31500001AE06F6921F0B9FA0446307821F0B5FA664BF1
S31500001AF0CDE9024001935F4B28460093564A4323A3
S31500001B005E49B847012492E7092B17D1D8F810206F
S31500001B1033699A4204D05D4B6C69009347236DE7A5
S31500001B2098ED037AD6ED037AB4EE677AF1EE10FA01
S31500001B3004D0574B6C69009349235FE73B683146F5
S31500001B4038465B6A01349847A345ADD199F8000041
S31500001B50012818D128462B6C05AA4FEA8B01984715
S31500001B60044600287FF463AF059BCAF810303B6833
S31500001B70414638465B6A98473B68494638465B6A41
S31500001B809847002453E709285CD12821AB6B2846E7
S31500001B9098472B6CCAF8100000F1240206464FEA5B
S31500001BA08B0128469847044600287FF440AFD8F8B2
S31500001BB01030D8F80C005B42B360D9F8103006F14B
S31500001BC0180BF3601423336225F042F802460B46E5
S31500001BD043EC192B24F0DEFE41EC1A0BD9F80C006D
S31500001BE025F036F800222B4B25F08AF802460B46E4
S31500001BF051EC1A0B25F0AEF953EC1A2B41EC180BED
S31500001C0051EC190B25F0A6F906F1100A41EC100B60
S31500001C10594650461FF0E2FDB0EE480AF0EE680A5B
S31500001C2006F11C0106F114001FF0D8FD331D2146F4
S31500001C3000934A46334628461FF04CFF04460028C8
S31500001C4095D0F4E66C6921F007FA13490246284656
S31500001C50A04757E7429902001499020051980200E2
S31500001C604FB402006C990200529902007D9902005D
S31500001C70A59C0200B5990200E0E402009B990200CF
S31500001C8068980200CE990200F8E40200F899020072
S31500001C903A9A020000003041729A02002DE9F04F94
S31500001CA02DED048B00228DB007468A460CF0E9FB29
S31500001CB00546007A01283CD1DAF8004004B12468D0
S31500001CC038467B6CDAF8101098474FF00008064645
S31500001CD044450DDD4246514638460CF0D0FB08B966
S31500001CE026F0ACFC036846F8283008F10108EFE757
S31500001CF0294606A80CF0E1FB06A8FEF7E1FF2A68D4
S31500001D0006EB8404134602EB8000984200F08B80B9
S31500001D103546DFED4C7A9F1AA54207D055F8041BCD
S31500001D20394491ED007A77EE877AF5E7E3EC017AAC
S31500001D30EBE709287DD1DAF8004004B12468DAF827
S31500001D40106038467B6C716A98474FF000098046F0
S31500001D504C450CDD4A46514638460CF090FB0028AF
S31500001D60BED0036848F8293009F10109F0E7F368A5
S31500001D7029460293736906A808EE103AF369D6F865
S31500001D80209008EE903A3368B76800937368D6F8E7
S31500001D9010A00193D6F818B00CF08FFB2B680393B4
S31500001DA0DDE9003293429BDC802F99DC17F17F0F2F
S31500001DB096DB06A8FEF784FF07FA09F309EE103A48
S31500001DC000250490049BAB422DD05A46514619EE8D
S31500001DD0100AFEF7E7FF002306469C420ED058F88D
S31500001DE02320514650575A46384400FA09F00593C5
S31500001DF0FEF7D8FF059B06440133EEE718EE902A5E
S31500001E0018EE101A3046FEF7CDFF029B1844009BD1
S31500001E109842B8BF1846019B9842A8BF1846039B34
S31500001E2058550135CEE700200DB0BDEC048BBDE85A
S31500001E30F08F7C6921F010F9034902463846A04725
S31500001E400120F1E700000000729A020010B5044676
S31500001E500021034B034A0CF0EBFA204610BD00BFED
S31500001E609D1C0000D9190000002210B50446114639
S31500001E70024B0CF0DDFA204610BD00BFCF23000058
S31500001E80002210B504461146024B0CF0D1FA20464A
S31500001E9010BD00BFC92300002DE9F04F9846036826
S31500001EA085B0002B0646019101DC26F0C7FBD8F869
S31500001EB00000591E8142F8D114683046002CB8BF84
S31500001EC0E4182146FEF7F0FE4FF00009054601270B
S31500001ED04C4512DD49463046FEF7E6FE4946824647
S31500001EE04046FEF7E1FE8245DFD149463046FEF721
S31500001EF0DBFE09F101094743EAE704F1010A01247F
S31500001F00D6F80090CA4530DB05FB04F30393A30023
S31500001F100293002301201E469C46674548DD4FF08C
S31500001F20000E0E9A019902EB860904FB00F201EB02
S31500001F308202009201EB830B744532DDFBEC017AE1
S31500001F4001214FF0000ADDF80080A94221DA98ED60
S31500001F50007AB4EEE77AF1EE10FA029AC4BF8A4626
S31500001F60F0EE477A01319044EFE751463046FEF7EE
S31500001F709BFE0AF1FF3183464046FEF795FE8345F8
S31500001F8093D151463046FEF78FFE0AF1010A4443CB
S31500001F90B8E7009A49F804AB04320EF1010E00923C
S31500001FA0CAE7039A0CF1010C264428441344B4E70B
S31500001FB005B0BDE8F08F2DE9F04F9846036885B06F
S31500001FC0002B0646019101DC26F038FBD8F800000C
S31500001FD0591E8142F8D114683046002CB8BFE41867
S31500001FE02146FEF761FE4FF00009054601274C45E4
S31500001FF012DD49463046FEF757FE494682464046C0
S31500002000FEF752FE8245DFD149463046FEF74CFECA
S3150000201009F101094743EAE704F1010A0124D6F868
S315000020200090CA4530DB05FB04F30393A30002933B
S31500002030002301201E469C46674548DD4FF0000EF2
S315000020400E9A019902EB860904FB00F201EB82026B
S31500002050009201EB830B744532DDFBEC017A012122
S315000020604FF0000ADDF80080A94221DA98ED007AE7
S31500002070B4EEE77AF1EE10FA029A44BF8A46F0EE21
S31500002080477A01319044EFE751463046FEF70CFEA1
S315000020900AF1FF3183464046FEF706FE834593D19B
S315000020A051463046FEF700FE0AF1010A4443B8E7FE
S315000020B0009A49F804AB04320EF1010E0092CAE709
S315000020C0039A0CF1010C264428441344B4E705B0E6
S315000020D0BDE8F08F2DE9F04F9846036885B0002BD8
S315000020E00646019101DC26F0A9FAD8F80000591E2F
S315000020F08142F8D114683046002CB8BFE418214656
S31500002100FEF7D2FD4FF00009054601274C4512DDCA
S3150000211049463046FEF7C8FD494682464046FEF728
S31500002120C3FD8245DFD149463046FEF7BDFD09F1C4
S3150000213001094743EAE704F1010A0124D6F80090B1
S31500002140CA4528DB05FB04F3039301230093002310
S315000021501E469C4667453FDD0E9A009902EB8608AF
S31500002160019A03EB020901FB042202920022944227
S3150000217029DD0299002002EB010E012119F901ABBC
S31500002180A9421CDA9EF900B0A644D345C4BF08464E
S31500002190DA460131F4E751463046FEF785FD0AF18D
S315000021A0FF3183464046FEF77FFD83459BD151466E
S315000021B03046FEF779FD0AF1010A4443C0E748F8C4
S315000021C0040B0132D3E7039A0CF1010C1344009A75
S315000021D026442A440092BDE705B0BDE8F08F2DE9FC
S315000021E0F04F9846036885B0002B0646019101DC46
S315000021F026F024FAD8F80000591E8142F8D1146856
S315000022003046002CB8BFE4182146FEF74DFD4FF0CE
S315000022100009054601274C4512DD49463046FEF7C2
S3150000222043FD494682464046FEF73EFD8245DFD1E4
S3150000223049463046FEF738FD09F101094743EAE70A
S3150000224004F1010A0124D6F80090CA4528DB05FBF3
S3150000225004F303930123009300231E469C4667451F
S315000022603FDD0E9A009902EB8608019A03EB0209FC
S3150000227001FB042202920022944229DD02990020E9
S3150000228002EB010E012119F901ABA9421CDA9EF9F4
S3150000229000B0A644D345BCBF0846DA460131F4E790
S315000022A051463046FEF700FD0AF1FF3183464046AF
S315000022B0FEF7FAFC83459BD151463046FEF7F4FC07
S315000022C00AF1010A4443C0E748F8040B0132D3E798
S315000022D0039A0CF1010C1344009A26442A440092F6
S315000022E0BDE705B0BDE8F08F2DE9F041904692B00C
S315000022F000220D4604460CF0C2F829460122064685
S3150000230020460CF0BCF829460746002220460CF071
S31500002310B8F80546387A02284BD1287A022848D1DF
S31500002320307A01280AD0092827D0656920F094FE62
S31500002330024623492046A847012018E0314606A850
S315000023400CF0BBF83A6829460CA8346803920CF0E6
S31500002350B4F82B6805A9CDE90031039A21460CABE8
S3150000236006A8B8F1000F05D0FFF796FD002012B0C1
S31500002370BDE8F081FFF71FFEF8E7314606A80CF02E
S315000023809CF83A6829460CA8346803920CF095F834
S315000023902B6805A9CDE90031039A21460CAB06A8A6
S315000023A0B8F1000F02D0FFF795FEDFE7FFF717FF42
S315000023B0DCE7656920F050FE02490246BAE700BF35
S315000023C0A09A0200E29A02000022FFF78DBF0122C6
S315000023D0FFF78ABF70B5002205460E460CF04FF88F
S315000023E0044608B926F02AF90122314628460CF09F
S315000023F046F802460028F5D0EB689B68986928B134
S315000024002368BDE8704019681EF06ABF02481EF0D6
S315000024100DFA012070BD00BF109B02002DE9F043AC
S315000024200B6804460E4687B013B11A68022A13D009
S31500002430656903B11B680222CDE902323B4B204697
S3150000244001933B4B3B4A00933B492723A847012571
S31500002450284607B0BDE8F0834B6800226BB11B68C5
S315000024605BB1CDE90232354B324A0193344B3249E6
S31500002470009344692823A047E9E7314620460BF03C
S31500002480FEFF054608B926F0D9F8037A0E2B0AD0C6
S31500002490022B08D02B4B2046009365693323254A2F
S315000024A02949A847D3E7002001220023696851F88B
S315000024B004EB86450CDD51F804CB01304FEAEC798C
S315000024C002FB09F70CFB0377A2FB0C233B44F0E766
S315000024D0002B08BF012A0ED00125CDE902231B4B94
S315000024E0049501931A4B2046009366693523114AD9
S315000024F01149B047ACE7E76831463B6801223846E8
S315000025009B69984706460028BDD02968B8683346B7
S315000025102246096880691EF0BDFE0546002897D14F
S315000025203B68314638465B6A984791E7DDC402004E
S31500002530B59B02007D9B02005299020005BB02007A
S315000025406C990200C59B0200519802004FB402002C
S315000025502B9C020010B504460021034B034A0BF0E6
S3150000256067FF204610BD00BFD52300001D240000D4
S315000025702DE9FF410B6804460F4613B11A68032A7A
S3150000258010D0656903B11B680322CDE90232434BC3
S3150000259020460193424B434A009343492923A847C7
S315000025A0012513E04B6813B11D68012D12D0666931
S315000025B003B11B680125CDE902353C4B204601934A
S315000025C03B4B384A009338492A23B047284604B083
S315000025D0BDE8F081C6680022336830469B6998479B
S315000025E033683946804600223046DB6998470746FD
S315000025F0B8F1000F00D040B92E4B65690093322325
S315000026002046284A2C49A847CAE7D8F808301A684D
S31500002610022A08DC294B6669009334232046214AA6
S315000026202549B047D2E783681B68022B04DC244B9C
S31500002630666900933523F1E7042A04DD214B6669B8
S3150000264000933623EAE7042B04DD1F4B65690093EC
S315000026503723D5E798F800003B78834212D06669A5
S3150000266020F0FAFC0546387820F0F6FC174BCDE949
S3150000267002500193164B204600930A4A3823154907
S31500002680B0478DE73368414630465B6A9847336802
S31500002690394630465B6A9847002597E73BC40200F7
S315000026A0B59B0200579C0200529902004FB40200EB
S315000026B06C990200919C020051980200B79C02009E
S315000026C0EB9C0200209D0200549D0200E0E4020003
S315000026D0F8E402009B99020070B50B680646042BCD
S315000026E086B00AD105460C460FCC0FC594E8030008
S315000026F085E80300304606B070BD0122002B039228
S3150000270001DC25F09BFF4A68012B0192F9D08A680B
S31500002710022B0292F5D0CB680446049304236D463F
S3150000272000930FCD0FC495E8030084E80300E1E7AA
S3150000273010B504460021034B034A0BF079FE2046F0
S3150000274010BD00BFA9290000712500002DE9F04F3A
S315000027502DED048B1E46036899B0022B0546DDE974
S3150000276027470B9101DC25F069FF042BFBDC3A6857
S315000027709342F8D101460CA8FFF7AEFF394612A8DE
S31500002780FFF7AAFF129B022BEDDD159B0593149B09
S315000027900493139B03930C9B032BE4DDDDE90F32BB
S315000027A008930E9B216809930D9B07910A93336842
S315000027B006932B680025042B14BF01267668042B8C
S315000027C014BF0023A3680293930008EE103A0A9BF5
S315000027D09D424EDA039B002795FBF3FB03FB1B533D
S315000027E0B84608EE903A099B984540DA9BFBF6F40A
S315000027F0079B3C44E41A35D4049BA34232DD4FF0D8
S315000028000009CA46089B9A452CDA9BFBF6F306FBA1
S3150000281013B3029A4B449B1A20D4059A9A421DDDA3
S31500002820002218EE901A009212A82246FEF773FABA
S31500002830299B424603EB800309EE103A0023294602
S3150000284000930CA85346FEF766FA0B9B18EE102A67
S3150000285003EB800119EE100A25F044FF0AF1010A84
S31500002860B144CFE7069B08F101081F44BBE70135D9
S31500002870ADE719B0BDEC048BBDE8F08F2DE9F04F44
S315000028802DED048B1E46036899B0022B0546DDE943
S3150000289027470B9101DC25F0D1FE042BFBDC3A68BF
S315000028A09342F8D101460CA8FFF716FF394612A845
S315000028B0FFF712FF129B022BEDDD159B0593149B70
S315000028C00493139B03930C9B032BE4DD109B22685C
S315000028D009EE103A0F9B079208930E9B09930D9BE6
S315000028E00A93336806932B680025042B14BF012630
S315000028F07668042B14BF0023A36802930A9B9D42AB
S315000029004CDA039B002795FBF3FB03FB1B53B846EE
S3150000291008EE103A099B98453EDA9BFBF6F4079BB6
S315000029203C44E41A33D4049BA34230DD4FF0000943
S31500002930CA46089B9A452ADA9BFBF6F306FB13B3B5
S31500002940029A4B449B1A1ED4059A9A421BDD00221A
S3150000295018EE101A009212A82246FEF7DCF9299BFF
S315000029604246034408EE903A0023294600930CA8F9
S315000029705346FEF7D0F90B9B19EE102A191818EEDC
S31500002980900A25F0AFFE0AF1010AB144D1E7069B91
S3150000299008F101081F44BDE70135AFE719B0BDECEA
S315000029A0048BBDE8F08FFFFF2DE9F04300229DB0B8
S315000029B00D4680460BF063FD29460446012240463B
S315000029C00BF05DFD29460222074640460BF057FDF7
S315000029D029460646002240460BF053FD0546207A5E
S315000029E001280CD0092837D0D8F8145020F034FB31
S315000029F0237A02462D494046A847012029E0214670
S31500002A0004A80BF05AFD39460AA8D4F800800BF04A
S31500002A1054FD0FB925F012FE10AC314620463F6832
S31500002A200BF04BFD002EF5D0D6F8009016AE2946D9
S31500002A3030460BF042FD002DECD02B684146CDE927
S31500002A400263CDE900493B460AAA04A8FFF77EFEC9
S31500002A5000201DB0BDE8F083214604A80BF02DFD33
S31500002A6039460AA8D4F800800BF027FD002FD1D0F4
S31500002A7010AC314620463F680BF01FFD002EC9D032
S31500002A80D6F8009016AE294630460BF016FD002DFE
S31500002A90C0D02B684146CDE90263CDE900493B46EB
S31500002AA00AAA04A8FFF7EAFED2E700BF929802003E
S31500002AB02DE9FF470B6805460F4613B11B68022B2D
S31500002AC009D0504B284600936C6920234E4A4F4943
S31500002AD0A047012437E04B6813B11C68012C0FD0C6
S31500002AE06E6903B11B680124CDE90234484B01939A
S31500002AF0484B009321232846434A4749B04722E0E2
S31500002B00C6680022336830469B6998473368394661
S31500002B10814622469B693046984733683946DB69C9
S31500002B20804600223046984799F800300746022B27
S31500002B300DD0042B0BD0394B284600936E692B23FE
S31500002B40314A3249B047204604B0BDE8F08798F8CC
S31500002B50002093420CD0CDE90232314B6C690193CF
S31500002B60304B00932D232846274A2B49A047B0E730
S31500002B703A78934208D0CDE902322B4B6C69019327
S31500002B80284B00932E23EEE7D9F80830D3F800A09F
S31500002B90BAF1010F09D001241D4BCDE902A401931E
S31500002BA0224B6E6900933123A5E7D8F808301C68DC
S31500002BB0012C08D0164BCDE9024A01931C4B6C69D7
S31500002BC000933223CFE7BB681B68012B08D0CDE901
S31500002BD002340F4B6E690193164B009335238AE737
S31500002BE03368494630465B6A984733684146304603
S31500002BF05B6A98473368394630465B6A98470024D3
S31500002C00A1E700BFCED50200899D020051980200BF
S31500002C104FB402006C99020052990200C09D020056
S31500002C20FD9D02000A9E0200E0E40200179E0200DB
S31500002C302D9E0200439E02002DE9F043002293B030
S31500002C4006460F460BF01BFC012205463946304668
S31500002C500BF015FC39460446002230460BF011FCF9
S31500002C60037A0646022B294668463DD10BF025FC21
S31500002C700DB925F0E3FC214606A8D5F800800BF037
S31500002C801CFC002CF5D031460CA8D4F800900BF0B3
S31500002C9014FC0CA8FEF714F800250746346804EB6C
S31500002CA08004AF4266DD6846FEF70AF80138401B2D
S31500002CB058BF58F8206006A848BF0126FEF700F85E
S31500002CC0431E5B1B52D4012E59F8233004D144F81D
S31500002CD0043C0135043CE4E7012B02D144F8046CC2
S31500002CE0F7E7B342FAD0C4E70BF0E7FB002DC0D0FC
S31500002CF0214606A8D5F800800BF0DFFB002CB8D0E3
S31500002D0031460CA8D4F800900BF0D7FB0CA8FDF7C1
S31500002D10D7FF00250746346804EBC004AF4229DD1F
S31500002D206846FDF7CDFF0138401B58BF58F83060A4
S31500002D3006A848BF0126FDF7C3FF0138401B4CBF5C
S31500002D40012259F83020012E05D1D31744E9022378
S31500002D500135083CE2E7012A30464FEAE67102D126
S31500002D6044E90201F4E79642FAD082E7012EB5D192
S31500002D703346ACE7002013B0BDE8F08310B5044637
S31500002D800021034B034A0BF053FB204610BD00BF46
S31500002D90392C0000B12A00002DE9F04F0B680546DA
S31500002DA088468BB013B11B68022B08D06C4B6C693C
S31500002DB000934D2328466B4A6B49A04757E04B6862
S31500002DC013B11C68012C12D06E6903B11B68012473
S31500002DD0CDE90234654B28460193654B614A009361
S31500002DE064494E23B04720460BB0BDE8F08FC66855
S31500002DF00022336830469B699847336882462246EC
S31500002E0041469B693046984733680022074641464B
S31500002E103046DB699847DAF80820814610680528AD
S31500002E2002DD6B69544942E097F800B0BBF1020F2E
S31500002E300BD0BBF1040F08D0504B284600936E69A7
S31500002E405A23484A4849B047CDE79AF8003099F8DE
S31500002E5000108B420DD0CDE90231494B6C690193CC
S31500002E60484B00935C2328463E4A4249A04701242A
S31500002E70B9E7052B04D1444B6C690093602399E7AD
S31500002E80BB681C68012C09D00126384BCDE90246E7
S31500002E9001933E4B6C6900932523E4E7D9F80810AB
S31500002EA05B68D1F80080984504D06B69384928469C
S31500002EB0984798E7404502DD6B693649F7E7B8F170
S31500002EC0050FAEDC0024A8EB00039B000432A042F1
S31500002ED017DD52F804EBBEF1010F0FD0D7F804C08E
S31500002EE0BBF1020F0CBF5CF803C05CF813C0E645EB
S31500002EF004D028466B6927499847B8E7013404335C
S31500002F00E5E74FEA8802043105A825F0EBFB00232C
S31500002F1004AA984512DD7968BBF1020F50680CBF10
S31500002F2051F8231051F833100432814204D01A4B61
S31500002F306C69009347233DE70133EAE7336851465E
S31500002F4030465B6A98473368394630465B6A98472D
S31500002F503368494630465B6A9847002443E700BF1A
S31500002F60CED50200599E0200519802004FB40200CD
S31500002F706C990200529902008E9E0200EA9E02009F
S31500002F80E0E40200F8E40200259F0200429F0200EE
S31500002F90579F0200C19F02002BA0020030B54A686D
S31500002FA084690B6862434569C46905FB03228B6823
S31500002FB004FB0322046ACB68406A04FB03230A6904
S31500002FC000FB023030BDFFFF10B504460021034B65
S31500002FD0034A0BF02DFA204610BD00BF9B310000BE
S31500002FE0992D000038B50122042350F8145B1031E6
S31500002FF0AB4201DB25F022FB50F80449013B41F8C6
S3150000300004498A6104FB02F2F2D238BD2DE9F04F81
S3150000301089B0DDE912579846DDE914369F428946A4
S3150000302005904FEA87041BD1294614440592FFF701
S31500003030B5FF059A294606FB00991046FFF7AEFF35
S3150000304000256769774306FB00862368AB424ADDA5
S3150000305030463A46494625F045FB01353E44F4E7FD
S31500003060002345F82730059B05EB040A03EB040B08
S315000030707B1C0693DAF80010DBF80030994212DA6E
S31500003080149B49460293069B0598CDE90053039687
S3150000309043460792FFF7BAFFDAF80030079A013382
S315000030A0CAF80030E6E7002345F82730DBF80010C1
S315000030B052F827301444994215D029461046FFF796
S315000030C06DFF01256769774306FB0086F3192268C1
S315000030D0AA4208DD18463A46314625F003FB034668
S315000030E001353B44F3E709B0BDE8F08F2DE9F04F19
S315000030F015469FB014AE024604460F469846052173
S31500003100012330460DF1280B0DF110099DF8A0A002
S31500003110FDF7E3FD59463046FFF764FF2A460123D3
S3150000312005214846FDF7D9FD31464846FFF75AFFC7
S3150000313004255BF8252056F825309A4217D1013D23
S31500003140F7D20023012522689A4204DD54F8041FB1
S3150000315001334D43F8E750461EF064FE394605FB41
S3150000316000F240461FB0BDE8F04F25F0BBBA14226E
S315000031700021484625F0DDFA50461EF053FE002396
S31500003180CDE90250CDE900933246434639465846CA
S31500003190FFF73CFF1FB0BDE8F08F70B500228EB080
S315000031A005460E460BF06BF90022044631462846CA
S315000031B00BF067F90546214602A80BF07EF9294671
S315000031C008A826680BF079F9237A02A800933146FD
S315000031D02B6808AAFFF78AFF00200EB070BDFFFF1C
S315000031E037B5D1E90432156800221D601A710B68E3
S315000031F004465BB11B684BB1124B134A00934469FA
S3150000320033231249A047012003B030BD4B6853B1A8
S315000032101B6843B10E4B00933423656920460A4A66
S315000032200A49A847EFE7E36898680368DB6A9847A6
S31500003230854204DB074B009365693923EEE70020DE
S31500003240E2E700BF8BA0020059A0020051980200DD
S31500003250A0A00200B6A0020010B50C6923794BB9F4
S31500003260C3682168986803685B69984708B90123B1
S31500003270237110BD0020FCE7836B10B50BB925F058
S31500003280DDF90821BDE810401847FFFF10B50446D8
S31500003290034B044A04490BF0CBF8204610BD00BF8F
S315000032A059320000E1310000793200002DE9FF417A
S315000032B00B6805460F4613B11A68012A12D06E69CB
S315000032C003B11B680124CDE90234244B0193244B3E
S315000032D000931D232846234A2349B047204604B0BD
S315000032E0BDE8F0814B6813B11C68012C0BD06E69E8
S315000032F003B11B680124CDE90234184B01931B4B23
S3150000330000931E23E6E7C6680022336830469B69B1
S315000033109847804640B9164B6E6900932423284689
S31500003320104A1449B047D9E7336839460022304677
S31500003330DB699847074620B90F4B6E690093272330
S31500003340EDE73368414630465B6A9847336839464D
S3150000335030465B6A98470024C0E700BF4FB40200BE
S31500003360B59B0200EFA00200529902006C99020080
S315000033706898020051980200A59C020070B50022D0
S315000033808CB004460E460BF07AF80022054631460C
S3150000339020460BF076F80446294668460BF08DF871
S315000033A006A821460BF089F80098069B984201D0A2
S315000033B025F044F901235A1E90420ADC6A46002190
S315000033C00123884202F104020EDD166801317343BF
S315000033D0F7E75DF8231006AA013302EB830252F8E1
S315000033E0042C9142E7D0E3E7287A09280ED880B169
S315000033F0421E082A0DD8DFE812F00F0195000C00D6
S315000034000C000C000C004F000C001200102800F0FD
S31500003410C8801FF021FE2A7A0146A64845E1207A97
S315000034202A68411E082900F23B81DFE811F02700D7
S315000034301D0039013901390139011300390109002B
S3150000344021681344934200F0328112F9010B01F80E
S31500003450010BF7E721681344934200F0288112F923
S31500003460010B21F8020BF7E7216813449A4200F09A
S315000034701E8112F9010B41F8040BF7E7216813448A
S31500003480934200F0148112F9010B07EE900AF8EE50
S31500003490E77AE1EC017AF3E7207A2A68411E0829E7
S315000034A000F2FE80DFE811F02D002000FC00FC0099
S315000034B0FC00FC001500FC000900216802EB430338
S315000034C09342104600F0F3800088023201F8010BA7
S315000034D0F6E7216802EB43039A4200F0E88032F9EE
S315000034E0020B21F8020BF7E7216802EB4303934234
S315000034F0104600F0DC80B0F90000023241F8040BFF
S31500003500F5E7216802EB43039A42104600F0CF80AC
S31500003510B0F90000023207EE900AF8EEE77AE1EC25
S31500003520017AF1E7207A2A68411E082900F2B8805C
S31500003530DFE801F0281DB6B6B6B611B6050021685B
S3150000354002EB83039342104600F0B1800068043218
S3150000355001F8010BF6E7216802EB83039A42104655
S3150000356000F0A5800068043221F8020BF6E7216816
S3150000357002EB83039A4200F09A8052F8040B41F85A
S31500003580040BF7E7216802EB83039342104600F031
S315000035908E80D0ED007AF8EEE77A0432E1EC017A1B
S315000035A0F3E7207A2A68411E082979D8DFE801F076
S315000035B0261B7878787810780500216802EB83035B
S315000035C09A42104673D00068043201F8010BF7E7FF
S315000035D0216802EB83039342104668D000680432E8
S315000035E021F8020BF7E7216802EB83039A421046A3
S315000035F05DD00068043241F8040BF7E7216802EB5E
S3150000360083039342104652D0D0ED007AF8EE677AE3
S315000036100432E1EC017AF4E7207A2A68411E08298F
S315000036203ED8DFE801F033253D3D3D3D153D050023
S31500003630206802EB83039A42114638D0D1ED007A16
S31500003640FDEEE77A17EE901A043200F8011BF2E756
S31500003650216802EB83039A42104628D0D0ED007A07
S31500003660FDEEE77A17EE900A043221F8020BF2E734
S31500003670216802EB83039342104618D0D0ED007AFE
S31500003680FDEEE77A0432E1EC017AF4E7216802EB19
S31500003690830393420BD052F8040B41F8040BF8E76E
S315000036A01FF0DAFC227A014603481DF0BFF800201D
S315000036B00CB070BD3FA102001CA1020010B504466B
S315000036C00021034B034A0AF0B3FE204610BD00BF9B
S315000036D07D330000AD3200002DE9F043C668044694
S315000036E03368002230469B6985B00D4698470746E9
S315000036F060B9574B6569009324232046554A5649BD
S31500003700A8470125284605B0BDE8F08333680022A6
S3150000371029463046DB699847804620B94F4B656994
S3150000372000932723E9E72B6813B11A68012A0FD003
S31500003730666903B11B680125CDE90235484B019343
S31500003740484B009328232046424A4749B047D9E7C9
S315000037506B6813B11D68012D0BD0666903B11B6838
S315000037600125CDE902353E4B0193404B00932923B9
S31500003770E9E797F80090B9F1010F13D04846676959
S315000037801FF06AFC064628461FF066FC384BCDE95A
S3150000379002600193374B204600932E4A2A2336496E
S315000037A0B847AFE70578012D13D0284666691FF0A4
S315000037B053FC054638781FF04FFC2E4BCDE90250DE
S315000037C001932E4B20460093224A2B232A49B047C9
S315000037D097E78369BA69934208D0CDE90232284B4C
S315000037E066690193274B00932C23ACE7D0F808E0D9
S315000037F0BA68DEF800101368994208D0CDE90213C2
S31500003800214B66690193214B00932D239BE70123EE
S31500003810043A581E81420FDD5EF82300013352F848
S3150000382023C06045F5D01A4BCDE9020C0193194B24
S31500003830666900932F2386E73368394630465B6A0C
S3150000384098473368414630465B6A9847002559E7F2
S315000038506898020061A1020051980200A59C02002E
S315000038604FB40200B59B0200529902006C99020007
S31500003870E2AB0200F8E402009B990200E0E40200D9
S315000038808EA102009BA102005DDB0200A9A102003D
S31500003890BCA10200D1A1020070B500228CB0044682
S315000038A00E460AF0ECFD31460546002220460AF097
S315000038B0E8FD2946044668460AF0FFFD0DB924F0E6
S315000038C0BDFE214606A82D680AF0F7FD002CF6D0AD
S315000038D02268069B009C9C42F1D10123591EA142FD
S315000038E013DB6B46002101208C4203F1040317DC35
S315000038F0134629460022824216DAF1EC017AFAFED4
S31500003900677A0132E3EC017AF5E75DF8230006A950
S31500003910013301EB830151F8041C8842DED0CEE767
S315000039201E6801317043DFE700200CB070BDFFFF59
S3150000393010B504460021034B034A0AF079FD2046E0
S3150000394010BD00BF99380000D93600007FB5836BE3
S315000039500D4616460BB924F071FE08219847044619
S3150000396075B16EB13246294601A81BF0D5FC064B4F
S3150000397001A819681BF094FC6060204604B070BD75
S3150000398000236360F9E700BFC8A2020070B51546C0
S31500003990013902FB01F4064622465919184624F05D
S315000039A0AEFE2A4631462044BDE8704024F09ABE59
S315000039B0194B70B51A680C4605460AF060FD174BA0
S315000039C0214606461A6828460AF05BFD24690CB9AA
S315000039D024F034FE337A092B0FD141680368D1E90C
S315000039E0032530686A438968FFF7D0FF20680138ED
S315000039F0206068B10A4B187809E018466C691FF018
S31500003A002BFB337A024607492846A047012070BDA2
S31500003A1063682360FBE700BFC0A20200C4A20200E5
S31500003A20BCA202009298020008B50C48D0E88F3F6D
S31500003A30DB070BD420F063FD40B1094B094A0A4964
S31500003A400A480AF0F5FC054820F068FD074808BD5D
S31500003A50024820F060FD20F0F7F900BFCC000020FE
S31500003A60B1390000713A00004D390000D000002045
S31500003A702DE9FF47C6680022336805469B69304634
S31500003A808946984733688046DB69002249463046B6
S31500003A909847D9F8103007460BB924F0CFFDB8F196
S31500003AA0000F0CD1594B6C69009336232846584AAF
S31500003AB05849A0470124204604B0BDE8F08720B944
S31500003AC0554B6C6900933723F0E7D8F80820D0F8F7
S31500003AD008A05168DAF8040081420CD04F4BCDE9BA
S31500003AE0021001934E4B284600936C693823484ACE
S31500003AF04C49A047DEE79468012C0DD04A4B03944D
S31500003B0001934A4B0124009339236E690294284697
S31500003B103F4A4449B047CEE7D168DAF80CE0714530
S31500003B2008D0434BCDE9021E0193424B6E690093C8
S31500003B303A23ECE7DAF810C01269944508D03E4BF8
S31500003B40CDE902C201933D4B6E6900933B23DEE74C
S31500003B5098F800003A78824213D0D5F814801FF006
S31500003B607BFA064638781FF077FA354BCDE90260C6
S31500003B700193344B28460093254A3D233249C047DA
S31500003B8099E7092A13D010466F691FF065FA0646B1
S31500003B9009201FF061FA2D4BCDE902600193294BF4
S31500003BA0284600931A4A40232749B84783E75A68AC
S31500003BB0002A17DC264ADAF80800116820F0080403
S31500003BC00131052C116009D0192807D0052919D112
S31500003BD0BEF1020F16D1BCF1600F13D1012159605D
S31500003BE0002111605A6841461A60C9F810303368DE
S31500003BF030465B6A98473368394630465B6A984771
S31500003C00002458E702225A60ECE700BF68980200D9
S31500003C10E7A1020051980200A59C020026A202001C
S31500003C203CA202005299020051A202004FB40200C7
S31500003C3066A202007CA2020091A20200A6A20200D5
S31500003C40E0E40200F8E402009B9902005FA802008B
S31500003C50F4000020836B10B50BB924F0EFFC202193
S31500003C60BDE810401847FFFF2DE9F0430D690746F0
S31500003C70884687B00DB924F0E1FCC46800222368A9
S31500003C8020469B699847064660B9274B009340F249
S31500003C9023237C693846254A2549A047012007B0D9
S31500003CA0BDE8F08323684146012220469B69984778
S31500003CB0804628B91F4B00937C6940F22623E9E72A
S31500003CC03378092B23D133690769F068C3F10009FA
S31500003CD022F0BEFF41EC100B03A902A81DF07EFDE9
S31500003CE0D8F80C0022F0B4FF41EC100B05A904A88B
S31500003CF01DF074FD0823C5E90039029B7F42AB60C5
S31500003D00039BC5E90337049B6B61059BAB61236885
S31500003D10314620465B6A98472368204641465B6ADF
S31500003D2098470020BBE700BFE1980200CCA2020042
S31500003D3051980200F39802002DE9F843D0F800905C
S31500003D400B68044699450F46164601D024F076FCCA
S31500003D5000254D450CDA29462046FCF7A5FF2946E5
S31500003D6080463846FCF7A0FF8045EFD10135F0E7E5
S31500003D70D4F8008033689845E8D10025A8450CDDC5
S31500003D8029462046FCF790FF294607463046FCF7B1
S31500003D908BFF8742DAD10135F0E700230120216845
S31500003DA0994204DD54F8042F01335043F8E7BDE887
S31500003DB0F883FFFF10B50446034B044A04490AF092
S31500003DC037FB204610BD00BF09470000693C0000D4
S31500003DD0553C000010B50446034B044A04490AF05A
S31500003DE027FB204610BD00BF314D0000693C000096
S31500003DF0553C000010B50446034B044A04490AF03A
S31500003E0017FB204610BD00BFB9520000693C0000F8
S31500003E10553C000010B50446034B044A04490AF019
S31500003E2007FB204610BD00BFE9570000693C0000B3
S31500003E30553C000010B50446034B044A04490AF0F9
S31500003E40F7FA204610BD00BF195D0000693C00006E
S31500003E50553C000010B50446034B044A04490AF0D9
S31500003E60E7FA204610BD00BF49620000693C000029
S31500003E70553C000008B508B924F0E0FB006808BD11
S31500003E8008B508B924F0DAFB006808BD08B508B91A
S31500003E9024F0D4FB006808BD08B508B924F0CEFBB1
S31500003EA0006808BD08B508B924F0C8FB006808BD5D
S31500003EB02DE9F0471F460B680646042B14469CB0B6
S31500003EC001DD24F0BBFB1368042BFADC3B68042BF2
S31500003ED0F7DC0A46012304216846FCF7FEFE22466B
S31500003EE000240123042106A8FCF7F7FE68460CA966
S31500003EF0FDF71CF914A906A8FDF718F9A2460DF15D
S31500003F0050090DF1300821466846FCF7CDFE2146E2
S31500003F10054606A8FCF7C8FE854205D0012D26D128
S31500003F20C8F810A0C8F800000134042C09F10409EF
S31500003F3008F10408E7D13A4621460123304606F146
S31500003F4018050CACFCF7C9FE0FCC0FC594E80F00A2
S31500003F5014AC85E80F000FCC06F138050FC594E8C0
S31500003F600F0085E80F0030461CB0BDE8F087012839
S31500003F70A7D1C9F810A0C9F80050D5E72DE9F0453A
S31500003F802DED028B99B0924602A81A46DDE9233739
S31500003F90FFF78EFF0024029B002B01DC24F04EFB72
S31500003FA0039B9C4244DA0025029B012BF6DD049B11
S31500003FB09D423BDA4FF00008029B022BEEDD059B8B
S31500003FC0984531DA0026029B032BE7DD069B9E42CD
S31500003FD027DA43462A462146009608A8FCF75BFFE7
S31500003FE00AEB8000D0ED008A43462A462146009619
S31500003FF010A8FCF750FF229B2A4603EB800090EDA9
S31500004000008A43460096214602A8FCF784FEF4EE99
S31500004010488AF1EE10FA0CBF0123002301363B5407
S31500004020D1E708F10108C7E70135BDE70134B2E77A
S3150000403019B0BDEC028BBDE8F0852DE9F0452DEDFC
S31500004040028B99B0924602A81A46DDE92337FFF79C
S315000040502FFF0024029B002B01DC24F0EFFA039BC8
S315000040609C4244DA0025029B012BF6DD049B9D420F
S315000040703BDA4FF00008029B022BEEDD059B9845CC
S3150000408031DA0026029B032BE7DD069B9E4227DAE8
S3150000409043462A462146009608A8FCF7FCFE0AEB92
S315000040A08000D0ED008A43462A462146009610A895
S315000040B0FCF7F1FE229B2A4603EB800090ED008A76
S315000040C043460096214602A8FCF725FEF4EE488AF0
S315000040D0F1EE10FA14BF0123002301363B54D1E759
S315000040E008F10108C7E70135BDE70134B2E719B0A9
S315000040F0BDEC028BBDE8F0852DE9F0452DED028B78
S3150000410099B0924602A81A46DDE92337FFF7D0FE9A
S315000041100024029B002B01DC24F090FA039B9C42B6
S3150000412044DA0025029B012BF6DD049B9D423BDA17
S315000041304FF00008029B022BEEDD059B984531DA15
S315000041400026029B032BE7DD069B9E4227DA4346A9
S315000041502A462146009608A8FCF79DFE0AEB800039
S31500004160D0ED008A43462A462146009610A8FCF761
S3150000417092FE229B2A4603EB800090ED008A43467E
S315000041800096214602A8FCF7C6FDF4EEC88AF1EEB9
S3150000419010FACCBF0123002301363B54D1E708F1C6
S315000041A00108C7E70135BDE70134B2E719B0BDEC38
S315000041B0028BBDE8F0852DE9F0452DED028B99B017
S315000041C0924602A81A46DDE92337FFF771FE00245E
S315000041D0029B002B01DC24F031FA039B9C4244DA5B
S315000041E00025029B012BF6DD049B9D423BDA4FF036
S315000041F00008029B022BEEDD059B984531DA00266E
S31500004200029B032BE7DD069B9E4227DA43462A469E
S315000042102146009608A8FCF73EFE0AEB8000D0ED8A
S31500004220008A43462A462146009610A8FCF733FE2C
S31500004230229B2A4603EB800090ED008A43460096B7
S31500004240214602A8FCF767FDF4EEC88AF1EE10FAE3
S31500004250ACBF0123002301363B54D1E708F1010826
S31500004260C7E70135BDE70134B2E719B0BDEC028BF3
S31500004270BDE8F0852DE9F0452DED028B99B092460B
S3150000428002A81A46DDE92337FFF712FE0024029B37
S31500004290002B01DC24F0D2F9039B9C4244DA002572
S315000042A0029B012BF6DD049B9D423BDA4FF0000892
S315000042B0029B022BEEDD059B984531DA0026029B18
S315000042C0032BE7DD069B9E4227DA43462A46214614
S315000042D0009608A8FCF7DFFD0AEB8000D0ED008A07
S315000042E043462A462146009610A8FCF7D4FD229B99
S315000042F02A4603EB800090ED008A4346009621464D
S3150000430002A8FCF708FDF4EEC88AF1EE10FA4CBFDD
S315000043100123002301363B54D1E708F10108C7E722
S315000043200135BDE70134B2E719B0BDEC028BBDE83B
S31500004330F0852DE9F0452DED028B99B0924602A845
S315000043401A46DDE92337FFF7B3FD0024029B002B55
S3150000435001DC24F073F9039B9C4244DA0025029B9E
S31500004360012BF6DD049B9D423BDA4FF00008029BD1
S31500004370022BEEDD059B984531DA0026029B032BC6
S31500004380E7DD069B9E4227DA43462A4621460096EB
S3150000439008A8FCF780FD0AEB8000D0ED008A4346B2
S315000043A02A462146009610A8FCF775FD229B2A4650
S315000043B003EB800090ED008A43460096214602A852
S315000043C0FCF7A9FCF4EEC88AF1EE10FA94BF0123BB
S315000043D0002301363B54D1E708F10108C7E7013550
S315000043E0BDE70134B2E719B0BDEC028BBDE8F0853C
S315000043F02DE9F04E98B0914602A81A46219BFFF788
S3150000440057FD0024029B002B01DC24F017F9039BC7
S315000044109C423FDA0025029B012BF6DD049B9D4260
S3150000442036DA0026029A022AEFDD059A96422DDA3E
S315000044300027029A032AE8DD069A974224DA3346D1
S315000044402A462146009708A8FCF725FD334619F8A9
S3150000445000A02A462146009710A8FCF71CFD209BC9
S315000044602A4613F800B021463346009702A8FCF707
S3150000447052FCAAEB0B03D3F1000A4AEB030A229B78
S31500004480013703F800A0D4E70136CBE70135C2E7D0
S315000044900134B7E718B0BDE8F08E2DE9F04E98B0BC
S315000044A0914602A81A46219BFFF702FD0024029BB3
S315000044B0002B01DC24F0C2F8039B9C423FDA002566
S315000044C0029B012BF6DD049B9D4236DA0026029AFA
S315000044D0022AEFDD059A96422DDA0027029A032A70
S315000044E0E8DD069A974224DA33462A4621460097A3
S315000044F008A8FCF7D0FC334659F820A02A462146E6
S31500004500009710A8FCF7C7FC209B2A4653F820B05A
S3150000451021463346009702A8FCF7FDFBAAEB0B03E6
S31500004520D3F1000A4AEB030A229B013703F800A0E5
S31500004530D4E70136CBE70135C2E70134B7E718B057
S31500004540BDE8F08E2DE9F04F9BB00DF1100A9346B1
S3150000455050461A46259BFFF7ABFC0024049B002B14
S3150000456001DC24F06BF8059B9C4245DA0025049B90
S31500004570012BF6DD069B9D423CDA0026049B022BAE
S31500004580EFDD079B9E4233DA0027049B032BE8DD11
S31500004590089B9F422ADA33462A46214600970AA8F4
S315000045A0FCF779FC0BEBC000D0E900232146CDE9EE
S315000045B00223009733462A4612A8FCF76CFC249B7C
S315000045C02A4603EBC000D0E900893346009721460E
S315000045D05046FCF7A0FBDDE902234B4506BF4245EA
S315000045E001230023269A01371354CEE70136C5E787
S315000045F00135BCE70134B1E71BB0BDE8F08F2DE90A
S31500004600F04F2DED048B04469DB00DF1180A05926E
S3150000461050461A462B9BFFF74BFCD4E900B3039395
S31500004620A36808EE103AE36808EE903A236904930B
S31500004630636909EE103AA369002409EE903A069BD5
S31500004640002B01DC23F0FAFF079B9C4257DA00257A
S31500004650069B012BF6DD089B9D424EDA0026069B43
S31500004660022BEFDD099B9E4245DA0027069B032BB2
S31500004670E8DD0A9B9F423CDA33462A4621460097EC
S315000046800CA8FCF708FC059B2A4613F90080039B3F
S31500004690214698440097334614A8FCF7FCFB2A9B56
S315000046A018EE902A13F90090049B18EE101A08FAD7
S315000046B00BF09944FCF776FB09FA0BF9804619EEE4
S315000046C0902A19EE101A4846FCF76CFB81463346D1
S315000046D000972A4621465046FCF71DFBA8EB090326
S315000046E0D3F1000848EB03082C9B013703F8008040
S315000046F0BCE70136B3E70135AAE701349FE71DB0F1
S31500004700BDEC048BBDE8F08F2DE9F04F2DED028B4B
S315000047100D6980460C469FB00DB923F08FFF00222D
S3150000472009F0ADFE214607460122404609F0A7FEE4
S31500004730002221468146404609F0A3FE044639463A
S315000047400CA809F0BAFE18AE494612A809F0B5FE43
S315000047502146304609F0B1FE002CDED049463846E7
S31500004760246809F09CFE80F00103387ADBB2421E11
S31500004770082A00F24A81DFE812F03F007B00480178
S31500004780AF004801090048014801EC003846A3B1D2
S31500004790FFF770FB04904846FFF76CFBCDE9016418
S315000047A00090049A284612AB0CA9FFF721FE0020C0
S315000047B01FB0BDEC028BBDE8F08FFFF75BFB074631
S315000047C04846FFF757FB3246054612A90CA8FFF7E5
S315000047D0B3FA0022804600234FEAE079424573EBA4
S315000047E00901E4DAB85CAE5C861B70427041A054E5
S315000047F0013243F10003F1E738467BB1FFF740FB96
S3150000480004904846FFF73CFBCDE901640090049A0A
S31500004810284612AB0CA9FFF7B1FBC8E7FFF730FB40
S3150000482080464846FFF72CFB3246054612A90CA8DF
S31500004830FFF782FA29460646C7170022404600239C
S31500004840B24273EB0705B2DAB0EC017AF1EC017A09
S31500004850B4EE677AF1EE10FA0CBF4FF0010C4FF090
S31500004860000CA518013285F800C043F10003E7E704
S3150000487038467BB1FFF70AFB04904846FFF706FB74
S31500004880CDE901640090049A284612AB0CA9FFF703
S3150000489004FE8CE7FFF7FAFA80464846FFF7F6FA79
S315000048A03246814612A90CA8FFF746FA00220646B0
S315000048B00023C717B24273EB0701BFF678AF58F86B
S315000048C022100D4659F822106D1A69426941A15409
S315000048D0013243F10003EDE738467BB1FFF7DCFA1E
S315000048E004904846FFF7D8FACDE901640090049A8F
S315000048F0284612AB0CA9FFF725FE58E7FFF7CCFABE
S3150000490080464846FFF7C8FA3246054612A90CA863
S31500004910FFF712FA002200230646C717A8F108017E
S31500004920A5F10800B24273EB0705BFF640AFF1E907
S3150000493002ABF0E90289CB4506BFC2454FF0010C38
S315000049404FF0000CA518013285F800C043F10003B2
S31500004950E8E738467BB1FFF7A5FA04904846FFF72B
S31500004960A1FACDE901640090049A284612AB0CA97D
S31500004970FFF745FE1BE7FFF795FA04904846FFF759
S3150000498091FAD5E90073D5E902AB06932B69059038
S3150000499007936B6918AA12A90CA808EE103AAD691C
S315000049A0FFF7CAF902464FF000084FF00009C31797
S315000049B0CDE90823DDE90823904579EB0303BFF62B
S315000049C0F6AE059A069B12F90860079A51461644F8
S315000049D0049ACDF82C8012F908005A461844B840BB
S315000049E0FCF7E0F9BE400A902A4618EE101A304647
S315000049F0FCF7D8F90A9B1B1A584258410B9B18F131
S31500004A000108E05449F10009D4E7D8F814401EF033
S31500004A1023FB3B7A024602494046A0470120C7E6EF
S31500004A20929802002DE9F04E98B0914602A81A46D7
S31500004A30219BFFF73DFA0024029B002B01DC23F0AB
S31500004A40FDFD039B9C423BDA0025029B012BF6DD14
S31500004A50049B9D4232DA0026029A022AEFDD059A6D
S31500004A60964229DA0027029A032AE8DD069A974237
S31500004A7020DA33462A462146009708A8FCF70BFAA7
S31500004A80334619F800A02A462146009710A8FCF7DD
S31500004A9002FA209B2A4613F800B0214633460097B7
S31500004AA002A8FCF738F9229B8AEA0B0A03F800A051
S31500004AB00137D8E70136CFE70135C6E70134BBE752
S31500004AC018B0BDE8F08E2DE9F04E98B0914602A8D8
S31500004AD01A46219BFFF7ECF90024029B002B01DC10
S31500004AE023F0ACFD039B9C423EDA0025029B012B82
S31500004AF0F6DD049B9D4235DA0026029A022AEFDD96
S31500004B00059A96422CDA0027029A032AE8DD069ACD
S31500004B10974223DA33462A462146009708A8FCF72F
S31500004B20BAF9334659F820A02A462146009710A81C
S31500004B30FCF7B1F9209B2A4653F820B021463346AC
S31500004B40009702A8FCF7E7F8BAEB0B0A18BF4FF07C
S31500004B50010A229B013703F800A0D5E70136CCE70E
S31500004B600135C3E70134B8E718B0BDE8F08E2DE98A
S31500004B70F04F9BB00DF1100A934650461A46259BFE
S31500004B80FFF796F90024049B002B01DC23F056FD69
S31500004B90059B9C4245DA0025049B012BF6DD069B0E
S31500004BA09D423CDA0026049B022BEFDD079B9E42CA
S31500004BB033DA0027049B032BE8DD089B9F422ADAA1
S31500004BC033462A46214600970AA8FCF764F90BEB00
S31500004BD0C000D0E900232146CDE9022300973346E1
S31500004BE02A4612A8FCF757F9249B2A4603EBC00075
S31500004BF0D0E900893346009721465046FCF78BF8EA
S31500004C00DDE902234B450ABF424501230023269ACC
S31500004C1001371354CEE70136C5E70135BCE7013449
S31500004C20B1E71BB0BDE8F08F2DE9F04F2DED048BF9
S31500004C3004469DB00DF1180A059250461A462B9B64
S31500004C40FFF736F9D4E900B30393A36808EE103AE8
S31500004C50E36808EE903A23690493636909EE103A13
S31500004C60A369002409EE903A069B002B01DC23F091
S31500004C70E5FC079B9C4256DA0025069B012BF6DDD8
S31500004C80089B9D424DDA0026069B022BEFDD099B11
S31500004C909E4244DA0027069B032BE8DD0A9B9F42CF
S31500004CA03BDA33462A46214600970CA8FCF7F3F870
S31500004CB0059B2A4613F90080039B214698440097DA
S31500004CC0334614A8FCF7E7F82A9B18EE902A13F946
S31500004CD00090049B18EE101A08FA0BF09944FCF7A2
S31500004CE061F809FA0BF9804619EE902A19EE101AA6
S31500004CF04846FCF757F88146334600972A46214630
S31500004D005046FCF708F8B8EB090818BF4FF0010841
S31500004D102C9B013703F80080BDE70136B4E7013567
S31500004D20ABE70134A0E71DB0BDEC048BBDE8F08F06
S31500004D302DE9F04F2DED028B0D6980460C469FB094
S31500004D400DB923F07BFC002209F099FB21460746AA
S31500004D500122404609F093FB002221468146404647
S31500004D6009F08FFB044639460CA809F0A6FB18AEDD
S31500004D70494612A809F0A1FB2146304609F09DFBE1
S31500004D80002CDED049463846246809F088FB80F0BE
S31500004D900103387ADBB2421E082A00F24881DFE8B6
S31500004DA012F03D0079004601AD00460109004601BA
S31500004DB04601EA003846A3B1FFF75CF8049048467E
S31500004DC0FFF758F8CDE901640090049A284612AB23
S31500004DD00CA9FFF727FE00201FB0BDEC028BBDE833
S31500004DE0F08FFFF747F807464846FFF743F8324685
S31500004DF0054612A90CA8FEF79FFF00228046002355
S31500004E004FEAE079424573EB0901E4DAB85CAE5C3F
S31500004E107040A054013243F10003F3E738467BB1FA
S31500004E20FFF72EF804904846FFF72AF8CDE901640B
S31500004E300090049A284612AB0CA9FFF7FEF8CAE7C1
S31500004E40FFF71EF880464846FFF71AF83246054631
S31500004E5012A90CA8FEF770FF29460646C7170022BE
S31500004E6040460023B24273EB0705B4DAB0EC017A90
S31500004E70F1EC017AB4EE677AF1EE10FA14BF4FF056
S31500004E80010C4FF0000CA518013285F800C043F163
S31500004E900003E7E738467BB1FEF7F8FF0490484683
S31500004EA0FEF7F4FFCDE901640090049A284612ABA0
S31500004EB00CA9FFF708FE8EE7FEF7E8FF8046484696
S31500004EC0FEF7E4FF3246814612A90CA8FEF734FF2E
S31500004ED0002206460023C717B24273EB0701BFF64E
S31500004EE07AAF58F822100D4659F82210691A18BFE1
S31500004EF00121A154013243F10003EDE738467BB1AD
S31500004F00FEF7CAFF04904846FEF7C6FFCDE90164E6
S31500004F100090049A284612AB0CA9FFF728FE5AE720
S31500004F20FEF7BAFF80464846FEF7B6FF324605460C
S31500004F3012A90CA8FEF700FF002200230646C71799
S31500004F40A8F10801A5F10800B24273EB0705BFF608
S31500004F5042AFF1E902ABF0E90289CB450ABFC2458F
S31500004F604FF0010C4FF0000CA518013285F800C077
S31500004F7043F10003E8E738467BB1FEF793FF049060
S31500004F804846FEF78FFFCDE901640090049A284653
S31500004F9012AB0CA9FFF748FE1DE7FEF783FF04904E
S31500004FA04846FEF77FFFD5E90073D5E902AB0693C5
S31500004FB02B69059007936B6918AA12A90CA808EE2D
S31500004FC0103AAD69FEF7B8FE02464FF000084FF002
S31500004FD00009C317CDE90823DDE90823904579EBDD
S31500004FE00303BFF6F8AE059A069B12F90860079A06
S31500004FF051461644049ACDF82C8012F908005A46F8
S315000050001844B840FBF7CEFEBE400A902A4618EE7A
S31500005010101A3046FBF7C6FE0A9B181A18BF012065
S315000050200B9B18F10108E05449F10009D4E7D8F8C0
S3150000503014401EF011F83B7A024602494046A0474A
S315000050400120C9E6929802002DE9F04E98B09146EB
S3150000505002A81A46219BFEF72BFF0024029B002B79
S3150000506001DC23F0EBFA039B9C423FDA0025029B0E
S31500005070012BF6DD049B9D4236DA0026029A022AAF
S31500005080EFDD059A96422DDA0027029A032AE8DD1B
S31500005090069A974224DA33462A462146009708A8FC
S315000050A0FBF7F9FE334659F820A02A462146009719
S315000050B010A8FBF7F0FE209B2A4653F820B02146A5
S315000050C03346009702A8FBF726FEDA45D4BF4FF019
S315000050D0000A4FF0010A229B013703F800A0D4E72B
S315000050E00136CBE70135C2E70134B7E718B0BDE8B2
S315000050F0F08E2DE9F04F9BB00DF1100A9346504605
S315000051001A46259BFEF7D4FE0024049B002B01DCE7
S3150000511023F094FA059B9C4246DA0025049B012B5A
S31500005120F6DD069B9D423DDA0026049B022BEFDD51
S31500005130079B9E4234DA0027049B032BE8DD089B7D
S315000051409F422BDA33462A46214600970AA8FBF7E8
S31500005150A2FE0BEBC000D0E900232146CDE90223D5
S31500005160009733462A4612A8FBF795FE249B2A464B
S3150000517003EBC000D0E9008933460097214650462C
S31500005180FBF7C9FDDDE90223904579EB0303B4BFC4
S3150000519001230023269A01371354CDE70136C4E7CD
S315000051A00135BBE70134B0E71BB0BDE8F08F2DE950
S315000051B0F04F2DED048B04469DB00DF1180A0592B3
S315000051C050461A462B9BFEF773FED4E900B30393B1
S315000051D0A36808EE103AE36808EE903A2369049350
S315000051E0636909EE103AA369002409EE903A069B1A
S315000051F0002B01DC23F022FA079B9C4257DA00259C
S31500005200069B012BF6DD089B9D424EDA0026069B87
S31500005210022BEFDD099B9E4245DA0027069B032BF6
S31500005220E8DD0A9B9F423CDA33462A462146009730
S315000052300CA8FBF730FE059B2A4613F90080039B5A
S31500005240214698440097334614A8FBF724FE2A9B70
S3150000525018EE902A13F90090049B18EE101A08FA1B
S315000052600BF09944FBF79EFD09FA0BF9804619EEFF
S31500005270902A19EE101A4846FBF794FD81463346EC
S3150000528000972A4621465046FBF745FDC845D4BF40
S315000052904FF000084FF001082C9B013703F80080FF
S315000052A0BCE70136B3E70135AAE701349FE71DB035
S315000052B0BDEC048BBDE8F08F2DE9F04F2DED028B90
S315000052C00D6980460C469FB00DB923F0B7F9002250
S315000052D009F0D5F8214607460122404609F0CFF8E5
S315000052E0002221468146404609F0CBF8044639465D
S315000052F00CA809F0E2F818AE494612A809F0DDF844
S315000053002146304609F0D9F8002CDED04946384609
S31500005310246809F0C4F880F00103387ADBB2421E33
S31500005320082A00F21B81DFE812F009004A00190181
S315000053307E001901190119011901BC003846A3B1F3
S31500005340FEF79EFD04904846FEF79AFDCDE90164FE
S315000053500090049A284612AB0CA9FEF7CDFE002059
S315000053601FB0BDEC028BBDE8F08FFEF789FD8046CD
S315000053704846FEF785FD3246054612A90CA8FEF7FB
S31500005380DBFC29460646C717002240460023B242E8
S3150000539073EB0705E3DAB0EC017AF1EC017AB4EECF
S315000053A0E77AF1EE10FACCBF4FF0010C4FF0000C8B
S315000053B0A518013285F800C043F10003E7E7384637
S315000053C07BB1FEF763FD04904846FEF75FFDCDE92D
S315000053D001640090049A284612AB0CA9FFF734FE2C
S315000053E0BDE7FEF753FD80464846FEF74FFD3246C1
S315000053F0814612A90CA8FEF79FFC00220646002350
S31500005400C717B24273EB0701A9DA58F822100D4606
S3150000541059F822108D42D4BF00210121A154013236
S3150000542043F10003EDE738467BB1FEF735FD049006
S315000054304846FEF731FDCDE901640090049A2846FE
S3150000544012AB0CA9FFF755FE89E7FEF725FD80464E
S315000054504846FEF721FD3246054612A90CA8FEF77E
S315000054606BFC002200230646C717A8F10801A5F128
S315000054700800B24273EB0705BFF671AFF1E9028986
S31500005480F0E902ABC2457BEB090CB4BF4FF0010C4F
S315000054904FF0000CA518013285F800C043F1000357
S315000054A0E7E738467BB1FEF7FDFC04904846FEF779
S315000054B0F9FCCDE901640090049A284612AB0CA9C8
S315000054C0FFF775FE4BE7FEF7EDFC04904846FEF746
S315000054D0E9FCD5E90073D5E902AB06932B69059083
S315000054E007936B6918AA12A90CA808EE103AAD69C1
S315000054F0FEF722FC02464FF000084FF00009C317E2
